:020000040000FA
:0400000034EF00F0E9
:060008005C824DEF26F0C2
:100018005C80D8CF01F0E8CF02F0E0CF03F0A3A4D2
:1000280018EF00F01AEF00F01BEF00F0A450F0A852
:1000380020EF00F022EF00F02CEF00F0F0A227EF05
:1000480000F029EF00F02CEF00F0F09267EC27F0B9
:1000580003C0E0FF02C0E8FF01C0D8FF5C901000B9
:100068004BEF21F049C0D9FF4AC0DAFFDECFF6FFD7
:10007800DDCFF7FF0800F550250AD8A446EF00F0B9
:1000880048EF00F01CEF04F049C0D9FF4AC0DAFF7E
:10009800DE2A000EDD22000E0001D96F000ED86F97
:1000A800D8C0DCF0D9C0DDF0DA69DB69000E636F17
:1000B800000E626FA6EF00F0DC8149C0D9FF4AC08C
:1000C800DAFFDE2A000EDD22A6EF00F0DC8361EF06
:1000D80000F0DC8561EF00F0DC8761EF00F0DC897F
:1000E80061EF00F0000E636F010E626FA6EF00F083
:1000F80049C0D9FF4AC0DAFFDECFF6FFDDCFF7FFF0
:100108000800F5504D6E4E6A4E50000AD8B48FEF75
:1001180000F076EF00F04D50200AD8B470EF00F0F0
:10012800030AD8B473EF00F0080AD8B46DEF00F0F2
:10013800060AD8B460EF00F01D0AD8B46AEF00F0E0
:1001480076EF00F062516311D8B4ADEF00F0AFEF75
:1001580000F07CEF00F0DCA1B4EF00F0B6EF00F0A7
:10016800B7EF00F0DC9349C0D9FF4AC0DAFFDECF11
:10017800F6FFDDCFF7FF0800F5502A0AD8A4C7EF2D
:1001880000F0C9EF00F0F2EF00F049C0D9FF4AC013
:10019800DAFFDE2A000EDD224BC0D9FF4CC0DAFFA1
:1001A800DFCF4DF0020EDE26DFCF4EF0000EDD224F
:1001B8004DC0D9FF4EC0DAFFDECFD8F0DDCFD9F081
:1001C800D9BFEBEF00F0E9EF00F036EF01F0DC818A
:1001D800D86DD91FD8B0D92B36EF01F049C0D9FF57
:1001E8004AC0DAFFDECF0BF0DDCF0CF0DBEC12F00B
:1001F8000BC0D8F00CC0D9F009EF01F049C0D9FF05
:100208004AC0DAFFDE2A000EDD22D00E4D6EFF0E48
:100218004E6E49C0D9FF4AC0DAFFDECFF6FFDDCF08
:10022800F7FF0800F5504F6E506A4D504F264E505C
:10023800502250500AE10A0E4F5CD8A026EF01F078
:1002480029EF01F0010E2AEF01F0000E0001646FA2
:10025800656B64516511D8A434EF01F036EF01F0F5
:1002680002EF01F049C0D9FF4AC0DAFFDECFF6FF3E
:10027800DDCFF7FF0800F550640AD8B446EF01F067
:1002880048EF01F05AEF01F049C0D9FF4AC0DAFF40
:10029800DECFF6FFDDCFF7FF0800F550690AD8A4D6
:1002A80058EF01F05AEF01F09AEF01F049C0D9FF79
:1002B8004AC0DAFFDE2A000EDD224BC0D9FF4CC04F
:1002C800DAFFDFCF4DF0020EDE26DFCF4EF0000E54
:1002D800DD224DC0D9FF4EC0DAFFDECF66F0DDCF9C
:1002E80067F0000E67BFFF0E686F696F6A6F6B6F0C
:1002F8006C6F6D6F47C020F048C021F066C022F0D7
:1003080067C023F068C024F069C025F06AC026F0F1
:100318006BC027F06CC028F06DC029F061EC0AF0C2
:1003280020C047F021C048F037EF04F049C0D9FF9A
:100338004AC0DAFFDECF04F0DDCF05F0E30E066E2B
:100348007F0E076E000E096E030E086EDAEC1AF0C7
:1003580004500510D8B4B3EF01F0B5EF01F0D0EFB9
:1003680001F049C0D9FF4AC0DAFFDECF04F0DDCF83
:1003780005F0E70E066E7F0E076E000E096E030E7F
:10038800086EDAEC1AF004500510D8A4CEEF01F08C
:10039800D0EF01F00AEF02F0030E49C0D9FF4AC0BE
:1003A800DAFFDE26000EDD224BC0D9FF4CC0DAFF93
:1003B800DFCF4DF0080EDE26DFCF4EF0000EDD2237
:1003C8004DC0D9FF4EC0DAFFDECF4FF0DECF50F080
:1003D800DECF51F0DECF52F0DECF53F0DECF54F057
:1003E800DECF55F0DECF56F04FC066F050C067F054
:1003F80051C068F052C069F053C06AF054C06BF045
:1004080055C06CF056C06DF07EEF01F049C0D9FFC1
:100418004AC0DAFFDECFF6FFDDCFF7FF0800F55060
:10042800730AD8A41AEF02F01CEF02F047EF02F0AB
:1004380049C0D9FF4AC0DAFFDE2A000EDD224BC0D0
:10044800D9FF4CC0DAFFDFCF4DF0020EDE26DFCF3A
:100458004EF0000EDD224DC0D9FF4EC0DAFFDECFD0
:1004680060F0DDCF61F047C00EF048C00FF060C00B
:1004780010F061C011F00DEC12F00EC047F00FC083
:1004880048F037EF04F049C0D9FF4AC0DAFFDECFA1
:10049800F6FFDDCFF7FF0800F550750AD8A457EF2F
:1004A80002F059EF02F09BEF02F049C0D9FF4AC0B1
:1004B800DAFFDE2A000EDD224BC0D9FF4CC0DAFF7E
:1004C800DFCF4DF0020EDE26DFCF4EF0000EDD222C
:1004D8004DC0D9FF4EC0DAFFDECF4FF0DDCF50F070
:1004E8004FC06FF050C070F00001716B726B736B8E
:1004F800746B756B766B47C020F048C021F06FC0F5
:1005080022F070C023F071C024F072C025F073C0CF
:1005180026F074C027F075C028F076C029F01AECD0
:1005280010F020C047F021C048F037EF04F049C070
:10053800D9FF4AC0DAFFDECF04F0DDCF05F0EB0EBD
:10054800066E7F0E076E000E096E030E086EDAEC5B
:100558001AF004500510D8A4B4EF02F0B6EF02F078
:10056800F0EF02F0030E49C0D9FF4AC0DAFFDE26D9
:10057800000EDD224BC0D9FF4CC0DAFFDFCF4DF0B3
:10058800080EDE26DFCF4EF0000EDD224DC0D9FF6B
:100598004EC0DAFFDECF4FF0DECF50F0DECF51F0A5
:1005A800DECF52F0DECF53F0DECF54F0DECF55F081
:1005B800DECF56F04FC06FF050C070F051C071F0F0
:1005C80052C072F053C073F054C074F055C075F047
:1005D80056C076F07FEF02F049C0D9FF4AC0DAFF73
:1005E800DECFF6FFDDCFF7FF0800F550780AD8B464
:1005F80000EF03F002EF03F014EF03F049C0D9FF56
:100608004AC0DAFFDECFF6FFDDCFF7FF0800F5506E
:10061800580AD8A412EF03F014EF03F063EF03F0C5
:1006280049C0D9FF4AC0DAFFDECFF6FFDDCFF7FFBA
:100638000800F5CF6EF049C0D9FF4AC0DAFFDE2ABC
:10064800000EDD224BC0D9FF4CC0DAFFDFCF4DF0E2
:10065800020EDE26DFCF4EF0000EDD224DC0D9FFA0
:100668004EC0DAFFDECF4FF0DDCF50F04FC06FF055
:1006780050C070F00001716B726B736B746B756BAB
:10068800766B47C020F048C021F06FC022F070C0E0
:1006980023F071C024F072C025F073C026F074C036
:1006A80027F075C028F076C029F06EC02AF0ADECAE
:1006B8000EF020C047F021C048F037EF04F049C0E1
:1006C800D9FF4AC0DAFFDECF04F0DDCF05F0EF0E28
:1006D800066E7F0E076E000E096E030E086EDAECCA
:1006E8001AF004500510D8B47CEF03F07EEF03F045
:1006F80099EF03F049C0D9FF4AC0DAFFDECF04F012
:10070800DDCF05F0DF0E066E7F0E076E000E096E58
:10071800030E086EDAEC1AF004500510D8A497EF0F
:1007280003F099EF03F0E6EF03F049C0D9FF4AC0A0
:10073800DAFFDECF4DF0DDCF4EF0020E4D26000E73
:100748004E224DC0F6FF4EC0F7FF0800F5CF6EF001
:10075800030E49C0D9FF4AC0DAFFDE26000EDD22AB
:100768004BC0D9FF4CC0DAFFDFCF4DF0080EDE26B4
:10077800DFCF4EF0000EDD224DC0D9FF4EC0DAFFAC
:10078800DECF4FF0DECF50F0DECF51F0DECF52F0AB
:10079800DECF53F0DECF54F0DECF55F0DECF56F08B
:1007A8004FC06FF050C070F051C071F052C072F07D
:1007B80053C073F054C074F055C075F056C076F04D
:1007C80045EF03F049C0D9FF4AC0DAFFDECFF6FF94
:1007D800DDCFF7FF0800F550250AD8A4F6EF03F09F
:1007E800F8EF03F00FEF04F049C0D9FF4AC0DAFF71
:1007F800DE2A000EDD22000E066E250E056E47C0AD
:1008080007F048C008F0B1EC1BF0000E486E010E6E
:10081800476E37EF04F049C0D9FF4AC0DAFFDE2A35
:10082800000EDD22000E486E000E476E37EF04F012
:1008380049C0D9FF4AC0DAFFDECFF6FFDDCFF7FFA8
:100848000800F550056E066A47C007F048C008F072
:10085800B1EC1BF049C0D9FF4AC0DAFFDE2A000E0E
:10086800DD2209EF04F0120083B43DEF04F03FEFFE
:1008780004F069EF05F00F0E0C6E000E0D6E000E01
:100888000E6E000E0F6EDAEC23F05A2A050E5A642B
:1008980050EF04F052EF04F054EF04F0000E5A6EDB
:1008A800000E0001E96F5FEF05F083B85EEF04F01A
:1008B80060EF04F0D6EF04F00F0E0C6E000E0D6E14
:1008C800000E0E6E000E0F6EDAEC23F083A86FEFA9
:1008D80004F071EF04F06AEF04F0B4EF04F0EA2BCF
:1008E8003B0EEA657AEF04F07CEF04F0D6EF04F0F3
:1008F800000EEA6FD6EF04F0EB2B170EEB6587EFCF
:1009080004F089EF04F0D6EF04F0000EEB6FD6EF99
:1009180004F0EF2B1E0EEF6594EF04F096EF04F051
:10092800D6EF04F0000EEF6FD6EF04F0F02B0C0EAC
:10093800F065A1EF04F0A3EF04F0D6EF04F0000E89
:10094800F06FD6EF04F0F12B630EF165AEEF04F013
:10095800B0EF04F0D6EF04F0000EF16FD6EF04F01C
:100968005A500001916F926B9251000AD8B4BFEFB0
:1009780004F0D6EF04F09151010AD8B473EF04F0F3
:10098800030AD8B480EF04F0010AD8B48DEF04F05C
:10099800070AD8B49AEF04F0010AD8B4A7EF04F014
:1009A800D6EF04F083BADBEF04F0DDEF04F053EF89
:1009B80005F00F0E0C6E000E0D6E000E0E6E000E82
:1009C8000F6EDAEC23F083AAECEF04F0EEEF04F0FC
:1009D800E7EF04F031EF05F0EA07F90EEA65F7EF03
:1009E80004F0F9EF04F053EF05F03B0EEA6F53EF14
:1009F80005F0EB07F90EEB6504EF05F006EF05F0DF
:100A080053EF05F0170EEB6F53EF05F0EF07F90EF4
:100A1800EF6511EF05F013EF05F053EF05F01F0E2A
:100A2800EF6F53EF05F0F007F90EF0651EEF05F0D4
:100A380020EF05F053EF05F00C0EF06F53EF05F0C3
:100A4800F107F90EF1652BEF05F02DEF05F053EFE7
:100A580005F0630EF16F53EF05F05A500001916FE6
:100A6800926B9251000AD8B43CEF05F053EF05F0B1
:100A78009151010AD8B4F0EF04F0030AD8B4FDEF9D
:100A880004F0010AD8B40AEF05F0070AD8B417EF42
:100A980005F0010AD8B424EF05F053EF05F0EBECAC
:100AA8001DF0320E0C6E000E0D6E000E0E6E000E56
:100AB8000F6EDAEC23F083A464EF05F066EF05F01F
:100AC80059EF04F0010E0001E16F83B66EEF05F0F7
:100AD80070EF05F02FEF07F00F0E0C6E000E0D6E85
:100AE800000E0E6E000E0F6EDAEC23F0592AD9ECC8
:100AF80026F01BEF07F083B884EF05F086EF05F0CA
:100B080022EF06F00F0E0C6E000E0D6E000E0E6E2C
:100B1800000E0F6EDAEC23F083A895EF05F097EF3F
:100B280005F090EF05F0F8EF05F0F22B3B0EF265BB
:100B3800A0EF05F0A2EF05F022EF06F0000EF26F2D
:100B480022EF06F0F32B3B0EF365ADEF05F0AFEFA8
:100B580005F022EF06F0000EF36F22EF06F0F42BFB
:100B6800170EF465BAEF05F0BCEF05F022EF06F0BA
:100B7800000EF46F22EF06F0F52BF551800A4E0FA8
:100B8800D8A0C9EF05F0CBEF05F022EF06F0320E42
:100B9800F56F22EF06F0F62BF651800A760FD8A0F3
:100BA800D8EF05F0DAEF05F022EF06F00A0EF66F3F
:100BB80022EF06F0F72B040EF765E5EF05F0E7EFF7
:100BC80005F022EF06F0050EF76F22EF06F0F82B7E
:100BD800090EF865F2EF05F0F4EF05F022EF06F0E4
:100BE8000A0EF76F22EF06F059500001916F926BD1
:100BF8009251000AD8B403EF06F022EF06F09151A3
:100C0800010AD8B499EF05F0030AD8B4A6EF05F0A5
:100C1800010AD8B4B3EF05F0070AD8B4C0EF05F05D
:100C2800010AD8B4CFEF05F0030AD8B4DEEF05F017
:100C3800010AD8B4EBEF05F022EF06F083BA27EFEC
:100C480006F029EF06F0C3EF06F00F0E0C6E000E4B
:100C58000D6E000E0E6E000E0F6EDAEC23F083AAF6
:100C680038EF06F03AEF06F033EF06F099EF06F0AA
:100C7800F207F90EF26543EF06F045EF06F0C3EF11
:100C880006F03B0EF26FC3EF06F0F307F90EF365BB
:100C980050EF06F052EF06F0C3EF06F03B0EF36F8D
:100CA800C3EF06F0F407F90EF4655DEF06F05FEFA9
:100CB80006F0C3EF06F0170EF46FC3EF06F0F50762
:100CC800F551800A750FD8B06CEF06F06EEF06F09C
:100CD800C3EF06F00A0EF56FC3EF06F0F607F551FD
:100CE800800A980FD8B07BEF06F07DEF06F0C3EFCF
:100CF80006F0E70EF56FC3EF06F0F707F90EF76594
:100D080088EF06F08AEF06F0C3EF06F0000EF76FE3
:100D1800C3EF06F0F807F90EF86595EF06F097EFC0
:100D280006F0C3EF06F08AEF06F059500001916F04
:100D3800926B9251000AD8B4A4EF06F0C3EF06F004
:100D48009151010AD8B43CEF06F0030AD8B449EF30
:100D580006F0010AD8B456EF06F0070AD8B463EFD4
:100D680006F0010AD8B472EF06F0030AD8B481EF8E
:100D780006F0010AD8B48EEF06F0C3EF06F0590466
:100D8800D8B4C9EF06F0CBEF06F0DDEF06F0020E9F
:100D98005918D8B4D2EF06F0D4EF06F0DDEF06F01C
:100DA800030E5918D8A4DBEF06F0DDEF06F0E1EFEB
:100DB80006F033EC23F011EF07F0040E5918D8B4FD
:100DC800E8EF06F0EAEF06F0F3EF06F0050E591823
:100DD800D8A4F1EF06F0F3EF06F0F7EF06F07FEC9A
:100DE80021F011EF07F0060E5918D8A4FEEF06F00F
:100DF80000EF07F004EF07F051EC24F011EF07F0D3
:100E0800070E5918D8A40BEF07F00DEF07F011EFF4
:100E180007F006EC23F011EF07F0320E0C6E000E0F
:100E28000D6E000E0E6E000E0F6EDAEC23F083A628
:100E380020EF07F022EF07F07FEF05F0070E596467
:100E480028EF07F02AEF07F02FEF07F0000E596E92
:100E5800010E0001E06F120052EC27F0CAEC26F0F8
:100E680012EC27F09AEC26F0970E0B6E010E0C6E22
:100E7800C0EC17F00009D8B444EF07F046EF07F0CC
:100E880050EF07F08C80140E00017D6F7D0E7E6F91
:100E980039EC26F04EEF07F0000E0101BD6F640E2D
:100EA800BB6F070EBC6FBB0E0B6E010E0C6E71ECA8
:100EB8001FF00009D8B463EF07F065EF07F06FEF94
:100EC80007F08C803C0E00017D6F7D0E7E6F39EC43
:100ED80026F06DEF07F0800E116E250E126E000ED3
:100EE800136E000E146EE6EC21F0A00E116E860E45
:100EF800126E010E136E000E146EA9EC22F0000E95
:100F0800096E000E086E000E0B6E070E0A6EB40E08
:100F18000C6E010E0D6EA10EF0EC18F0E806D8A4C8
:100F280098EF07F09AEF07F0A4EF07F08C80420ED5
:100F380000017D6F7E0E7E6F39EC26F0A2EF07F080
:100F4800F20E046E000E056EB40E066E010E076EEC
:100F5800000E096E070E086E02EC24F03C0E00012C
:100F6800F261B9EF07F0BBEF07F003EF08F03C0EB2
:100F7800F361C1EF07F0C3EF07F003EF08F0180EB5
:100F8800F461C9EF07F0CBEF07F003EF08F0F55174
:100F9800800AB60FD8A0D3EF07F0D5EF07F003EF1C
:100FA80008F0F551800A030FD8B0DDEF07F0DFEF46
:100FB80007F003EF08F0F651800AB60FD8A0E7EF64
:100FC80007F0E9EF07F003EF08F0F651800A030F86
:100FD800D8B0F1EF07F0F3EF07F003EF08F03C0E9D
:100FE800F761F9EF07F0FBEF07F003EF08F0640E85
:100FF800F86501EF08F003EF08F011EF08F0000EB4
:10100800F26F000EF36F000EF46F140EF56F050EFD
:10101800F66F010EF76F010EF86FFC0EFD17FD89D4
:10102800FD9FFD0E0F6E000E106EF8EC1FF0E80627
:10103800D8A421EF08F023EF08F02DEF08F08C80FA
:101048001D0E00017D6F7E0E7E6F39EC26F02BEFB2
:1010580008F05EEC23F0D9EC26F0610EF66E7C0EFB
:10106800F76E0800F5CF0CF0620EF66E7C0EF76E88
:101078000800F5CF0DF0630EF66E7C0EF76E0800D3
:10108800F5CF0EF0640EF66E7C0EF76E0800F5CF05
:101098000FF0650EF66E7C0EF76E0800F5CF10F0B7
:1010A800660EF66E7C0EF76E0800F5CF11F0670E2F
:1010B800F66E7C0EF76E0800F5CF12F0680EF66E2D
:1010C8007C0EF76E0800F5CF13F0010ED7EC08F090
:1010D800010E0C6E000E59EC18F0410E0F6E7F0ECB
:1010E800106EB3EC21F0020E0C6E000E59EC18F0E5
:1010F800200E0F6E7F0E106EB3EC21F03D0E000136
:10110800966FE10E956F3F0EE82EFED7952FFCD710
:10111800962FFAD700D0D9EC26F0010E0C6E000EEF
:1011280059EC18F00F0E0F6E7F0E106EB3EC21F015
:10113800020E0C6E000E59EC18F07B0E00017D6F4C
:10114800010E7E6FD90E7F6F7F0E806F97C181F081
:1011580098C182F099C183F09AC184F09BC185F04F
:101168009CC186F09DC187F09EC188F088EC23F071
:101178007B0E0F6E010E106EB3EC21F03D0E0001D8
:10118800966FE10E956F3F0EE82EFED7952FFCD790
:10119800962FFAD700D0D9EC26F0010E5EEC27F096
:1011A8001CEC27F01200166E47EF0AF0040E1AEC3A
:1011B80025F0000E1AEC25F05B805BC006F0400EAF
:1011C800DCEC24F00C380F0B176E0CC018F017501D
:1011D8001AEC25F018501AEC25F00D380F0B176E85
:1011E8000DC018F017501AEC25F018501AEC25F01D
:1011F8000E380F0B176E0EC018F017501AEC25F0AA
:1012080018501AEC25F00F380F0B176E0FC018F096
:1012180017501AEC25F018501AEC25F010380F0B5F
:10122800176E10C018F017501AEC25F018501AEC69
:1012380025F011380F0B176E11C018F017501AEC63
:1012480025F018501AEC25F012380F0B176E12C043
:1012580018F017501AEC25F018501AEC25F013382E
:101268000F0B176E13C018F017501AEC25F0185012
:101278001AEC25F05B905BC006F0400EDCEC24F025
:10128800000E1AEC25F0010E1AEC25F0070E156E6B
:10129800170E146E6A0EE82EFED7142EFCD7152EE4
:1012A800FAD700D060EF0AF0040E1AEC25F0080E09
:1012B8001AEC25F05B805BC006F0400EDCEC24F0F5
:1012C8000C380F0B176E0CC018F017501AEC25F0DD
:1012D80018501AEC25F00D380F0B176E0DC018F0CA
:1012E80017501AEC25F018501AEC25F00D380F0B92
:1012F800176E0DC018F017501AEC25F018501AEC9C
:1013080025F00E380F0B176E0EC018F017501AEC98
:1013180025F018501AEC25F00F380F0B176E0FC078
:1013280018F017501AEC25F018501AEC25F0103860
:101338000F0B176E10C018F017501AEC25F0185044
:101348001AEC25F011380F0B176E11C018F0175052
:101358001AEC25F018501AEC25F012380F0B176EFE
:1013680012C018F017501AEC25F018501AEC25F096
:1013780013380F0B176E13C018F017501AEC25F01E
:1013880018501AEC25F05B905BC006F0400EDCECC0
:1013980024F0000E1AEC25F0010E1AEC25F04AEFA5
:1013A80009F0040E1AEC25F0FF0E1AEC25F05B800C
:1013B8005BC006F0400EDCEC24F00C380F0B176E07
:1013C8000CC018F017501AEC25F018501AEC25F03C
:1013D8000D380F0B176E0DC018F017501AEC25F0CA
:1013E80018501AEC25F00E380F0B176E0EC018F0B7
:1013F80017501AEC25F018501AEC25F00F380F0B7F
:10140800176E0FC018F017501AEC25F018501AEC88
:1014180025F010380F0B176E10C018F017501AEC83
:1014280025F018501AEC25F011380F0B176E11C063
:1014380018F017501AEC25F018501AEC25F012384D
:101448000F0B176E12C018F017501AEC25F0185031
:101458001AEC25F013380F0B176E13C018F017503D
:101468001AEC25F018501AEC25F05B905BC006F0DA
:10147800400EDCEC24F0000E1AEC25F0010E1AECFC
:1014880025F04AEF09F01650146E156A1550000A37
:10149800D8B451EF0AF060EF0AF01450010AD8B43A
:1014A800DAEF08F0030AD8B458EF09F0010AD8B403
:1014B800D5EF09F060EF0AF0120022C03AF023C01D
:1014C8003BF024C03CF025C03DF026C03EF027C0CC
:1014D8003FF028C040F029C041F041BE76EF0AF045
:1014E80079EF0AF0010E7AEF0AF0000E386E396AC9
:1014F80038503910D8B483EF0AF085EF0AF095EF29
:101508000AF0411E401E3F1E3E1E3D1E3C1E3B1E55
:101518003A6C000E3B223C223D223E223F224022D2
:1015280041220001DBBF9BEF0AF09DEF0AF09EEF1E
:101538000AF0DC93DBBFABEF0AF0DB5106E1DA051A
:10154800D8B0A9EF0AF0ABEF0AF0B1EF0AF0000E3D
:10155800356E010E346EB5EF0AF0DAC034F0DBC038
:1015680035F0D8C036F0D9C037F038503910D8A483
:10157800C0EF0AF0C2EF0AF0C9EF0AF0DCA5C7EF26
:101588000AF0C9EF0AF0CCEF0AF03606D8A0370601
:10159800000E436E1F0E426E000E01016A6F51EF7E
:1015A8000BF04206D8A043064B0E4224D96E010E1A
:1015B8004320DA6E3AC004F03BC005F03CC006F0A8
:1015C8003DC007F03EC008F03FC009F040C00AF037
:1015D80041C00BF00A0E0C6E000E0D6E000E0E6E62
:1015E800000E0F6E000E106E000E116E000E126EC1
:1015F800000E136ED8EC15F004C02AF005C02BF0CD
:1016080006C02CF007C02DF008C02EF009C02FF03E
:101618000AC030F00BC031F02AC016F02CC017F009
:10162800BCEC24F01650300FDF6E3406D8A0350617
:101638003606D8A037063AC004F03BC005F03CC0D7
:1016480006F03DC007F03EC008F03FC009F040C0BA
:101658000AF041C00BF00A0E0C6E000E0D6E000E63
:101668000E6E000E0F6E000E106E000E116E000E44
:10167800126E000E136EA3EC13F004C03AF005C00E
:101688003BF006C03CF007C03DF008C03EF009C082
:101698003FF00AC040F00BC041F043BE5CEF0BF0D6
:1016A800435008E14204D8A05CEF0BF05EEF0BF06A
:1016B8008FEF0BF03A503B103C103D103E103F109E
:1016C80040104110D8A46BEF0BF06DEF0BF0D5EF85
:1016D8000AF035BE7AEF0BF0355006E13404D8B085
:1016E80078EF0BF07AEF0BF0D5EF0AF037BE85EF05
:1016F8000BF0375008E13604D8A085EF0BF087EFE0
:101708000BF08FEF0BF00001DCB38DEF0BF08FEFD8
:101718000BF0D5EF0AF038503910D8A496EF0BF03B
:1017280098EF0BF0A0EF0BF00001DCA59EEF0BF09B
:10173800A0EF0BF0BEEF0BF04206D8A043063850DE
:101748003910D8A4AAEF0BF0ACEF0BF0B2EF0BF006
:10175800000E336E2B0E326EB6EF0BF0000E336EAA
:101768002D0E326E4B0E4224D96E010E4320DA6ED6
:1017780032C0DFFF20C015F021C016F04B0E422406
:10178800176E010E4320186E36C019F037C01AF0D4
:1017980016EC1CF015C020F016C021F01200000E47
:1017A8000001D16F080ED06F000ED56F000ED46FF8
:1017B80078EF0CF0010ED425D26F000ED521D36F2F
:1017C80067EF0CF0D4C004F0D5C005F0000E076E2A
:1017D8001A0E066E61EC26F0020E0424D96E020E73
:1017E8000520DA6ED2C004F0D3C005F0000E076EF3
:1017F8001A0E066E61EC26F0020E0424E16E020E4B
:101808000520E26EDE50E65CDE50E658D8B00FEFF9
:101818000CF011EF0CF064EF0CF0D4C004F0D5C05C
:1018280005F0000E076E1A0E066E61EC26F0000E2B
:101838000424D96E020E0520DA6E10EEB4F0190EEB
:10184800DBCFE3FFE806FCE2D2C004F0D3C005F02A
:10185800000E076E1A0E066E61EC26F0000E0424C8
:10186800D96E020E0520DA6ED4C004F0D5C005F09A
:10187800000E076E1A0E066E61EC26F0000E0424A8
:10188800E16E020E0520E26E190EDBCFE3FFE806DB
:10189800FCE220EEB4F0D2C004F0D3C005F0000E94
:1018A800076E1A0E066E61EC26F0000E0424E16E37
:1018B800020E0520E26E190EDBCFE3FFE806FCE21C
:1018C8000001D24BD32BD251D05DD151800AA86FE1
:1018D800D351800AA859D8B074EF0CF076EF0CF009
:1018E800E6EF0BF0D44BD52BD451D05DD151800A03
:1018F800A86FD551800AA859D8B085EF0CF087EFAA
:101908000CF0DEEF0BF0000ED76F000ED66FD6C0CE
:1019180004F0D7C005F0000E076E1A0E066E61ECD3
:1019280026F00C0E0424D96E020E0520DA6EDE04B1
:10193800DE10D8A4A2EF0CF0A4EF0CF02FEF0DF0FE
:10194800D6C004F0D7C005F0000E076E1A0E066E5A
:1019580061EC26F0040E0424D96E020E0520DA6E1E
:10196800DECFA8F0DECFA9F0DECFAAF0DECFABF055
:10197800D6C004F0D7C005F0000E076E1A0E066E2A
:1019880061EC26F0080E0424D96E020E0520DA6EEA
:10199800DECFACF0DECFADF0DECFAEF0DECFAFF015
:1019A8000001A851AC25B06FA951AD21B16FAA5162
:1019B800AE21B26FAB51AF21B36F10EC26F000012E
:1019C800B051045CB1510558B2510658B35107588B
:1019D800D8A0F1EF0CF0F3EF0CF02FEF0DF0D6C01C
:1019E80004F0D7C005F0000E076E1A0E066E61EC03
:1019F80026F0080E0424D96E020E0520DA6E10ECCB
:101A080026F004C0DEFF05C0DEFF06C0DEFF07C00B
:101A1800DEFFD6C004F0D7C005F0000E076E1A0E20
:101A2800066E61EC26F00E0E0424D96E020E052017
:101A3800DA6EDECFCEF0DDCFCFF002D82FEF0DF08B
:101A480005000001FA6ECE51FD6ECF51FE6EF850C2
:101A5800FF6EFA5012000001D64BD72BD75109E17F
:101A6800090ED65DD8A03BEF0DF03DEF0DF08BEFE2
:101A78000CF087EF0CF012000EC0D9FF0FC0DAFF90
:101A8800DF50106E1050046E056A000E076E0A0EC5
:101A9800066E93EC1DF00CC0D9FF0DC0DAFFDF50C5
:101AA8000418F00B0418DF6E0EC0D9FF0FC0DAFF60
:101AB800DF50106E1050046E056A000E076E0A0E95
:101AC800066E79EC1CF00CC0D9FF0DC0DAFF043AA1
:101AD800DF5004188F0B0418DF6E20EE01F00E5053
:101AE800D9260F50DA22DF50106E1050046E056AA6
:101AF800000E076E0A0E066E93EC1DF020EE01F044
:101B08000C50D9260D50DA22DF500418F00B0418B7
:101B1800DF6E20EE01F00E50D9260F50DA22DF508A
:101B2800106E1050046E056A000E076E0A0E066EDF
:101B380079EC1CF020EE01F00C50D9260D50DA2279
:101B4800043ADF5004188F0B0418DF6E20EE02F001
:101B58000E50D9260F50DA22DF50106E1050046E46
:101B6800056A000E076E0A0E066E93EC1DF020EE55
:101B780002F00C50D9260D50DA22DF500418F00B71
:101B88000418DF6E20EE02F00E50D9260F50DA222C
:101B9800DF50106E1050046E056A000E076E0A0EB4
:101BA800066E79EC1CF020EE02F00C50D9260D5090
:101BB800DA22043ADF500418CF0B0418DF6E20EE47
:101BC80003F00E50D9260F50DA22DF50106E20EEA7
:101BD80002F00C50D9260D50DA22103A1046104661
:101BE800DF501018BF0B1018DF6E20EE03F00C50FA
:101BF800D9260D50DA22070EDF1220EE06F00E501D
:101C0800D9260F50DA22DF50106E1050046E056A84
:101C1800000E076E0A0E066E93EC1DF020EE04F01F
:101C28000C50D9260D50DA22DF500418F00B041896
:101C3800DF6E20EE06F00E50D9260F50DA22DF5064
:101C4800106E1050046E056A000E076E0A0E066EBE
:101C580079EC1CF020EE04F00C50D9260D50DA2255
:101C6800043ADF500418CF0B0418DF6E20EE07F09B
:101C78000E50D9260F50DA22DF50106E1050046E25
:101C8800056A000E076E0A0E066E93EC1DF020EE34
:101C980005F00C50D9260D50DA22DF500418F00B4D
:101CA8000418DF6E20EE07F00E50D9260F50DA2206
:101CB800DF50106E1050046E056A000E076E0A0E93
:101CC800066E79EC1CF020EE05F00C50D9260D506C
:101CD800DA22043ADF500418EF0B0418DF6E20EE06
:101CE80008F00E50D9260F50DA22DF50106E10502F
:101CF800046E056A000E076E0A0E066E93EC1DF060
:101D080020EE06F00C50D9260D50DA22DF500418C8
:101D1800F00B0418DF6E20EE08F00E50D9260F5095
:101D2800DA22DF50106E1050046E056A000E076E3E
:101D38000A0E066E79EC1CF020EE06F00C50D9263F
:101D48000D50DA22043ADF5004180F0B0418DF6E26
:101D580012000001DBBFB3EF0EF0B5EF0EF0B6EFE7
:101D68000EF0DC93DBBFC3EF0EF0DB5106E1DA05C2
:101D7800D8B0C1EF0EF0C3EF0EF0C9EF0EF0000EB1
:101D8800386E010E376ECDEF0EF0DAC037F0DBC0DB
:101D980038F0D8C039F0D9C03AF0DCA9D6EF0EF047
:101DA800D8EF0EF0DCEF0EF0FE0E3926FF0E3A22C9
:101DB80022C03BF023C03CF024C03DF025C03EF0DB
:101DC80026C03FF027C040F028C041F029C042F0AB
:101DD800000E446E1F0E436E000E01016A6FA8EFDD
:101DE8000FF04306D8A044060F0E3B14456E466A12
:101DF80046BE08EF0FF0465009E10A0E455CD8A030
:101E080008EF0FF00AEF0FF012EF0FF0570E45240E
:101E1800456E000E4620466E18EF0FF0300E452432
:101E2800456E000E4620466EBF0E2B6EFF0E2C6EC2
:101E38002A502D6E2E6A2B502D262C502E222E50D5
:101E48000AE11A0E2D5CD8A02CEF0FF02FEF0FF03F
:101E5800010E30EF0FF0000E336E346A3350341039
:101E6800D8B439EF0FF03BEF0FF06BEF0FF09F0E88
:101E78002B6EFF0E2C6E200E45102D6E000E461098
:101E88002E6E2B502D262C502E222E500AE11A0E83
:101E98002D5CD8A052EF0FF055EF0FF0010E56EF62
:101EA8000FF0000E356E366A35503610D8B45FEF35
:101EB8000FF061EF0FF06BEF0FF045C00AF046C06E
:101EC8000BF07AEC22F00AC045F00BC046F04B0E3E
:101ED8004324D96E010E4420DA6E45C0DFFF370671
:101EE800D8A038063906D8A03A063BC02BF03CC02B
:101EF8002CF03DC02DF03EC02EF03FC02FF040C06A
:101F080030F041C031F042C032F0050E95EF0FF0CD
:101F1800D8903232313230322F322E322D322C32AA
:101F28002B32E82E8CEF0FF02BC03BF02CC03CF08E
:101F38002DC03DF02EC03EF02FC03FF030C040F025
:101F480031C041F032C042F044BEB4EF0FF044500B
:101F580009E1020E435CD8A0B4EF0FF0B6EF0FF022
:101F6800E7EF0FF03B503C103D103E103F10401083
:101F780041104210D8A4C3EF0FF0C5EF0FF0F5EFF2
:101F88000EF038BED2EF0FF0385006E13704D8B063
:101F9800D0EF0FF0D2EF0FF0F5EF0EF03ABEDDEF15
:101FA8000FF03A5008E13904D8A0DDEF0FF0DFEF69
:101FB8000FF0E7EF0FF00001DCB3E5EF0FF0E7EF0C
:101FC8000FF0F5EF0EF00001DCA9EDEF0FF0EFEFE9
:101FD8000FF005EF10F04306D8A044064B0E43243B
:101FE800D96E010E4420DA6E2AC0DFFF4306D8A05E
:101FF80044064B0E4324D96E010E4420DA6E300E8F
:10200800DF6E20C015F021C016F04B0E4324176E6A
:10201800010E4420186E39C019F03AC01AF016ECB7
:102028001CF015C020F016C021F012000001DBBF23
:1020380020EF10F022EF10F023EF10F0DC93DBBF5D
:1020480030EF10F0DB5106E1DA05D8B02EEF10F0D2
:1020580030EF10F036EF10F0000E336E010E326ED6
:102068003AEF10F0DAC032F0DBC033F0D8C034F009
:10207800D9C035F022C036F023C037F024C038F07C
:1020880025C039F026C03AF027C03BF028C03CF004
:1020980029C03DF0000E3F6E1F0E3E6E000E01017E
:1020A8006A6FCDEF10F03E06D8A03F064B0E3E24D7
:1020B800D96E010E3F20DA6E36C004F037C005F045
:1020C80038C006F039C007F03AC008F03BC009F044
:1020D8003CC00AF03DC00BF00A0E0C6E000E0D6EEF
:1020E800000E0E6E000E0F6E000E106E000E116EBA
:1020F800000E126E000E136E49EC1BF004C02AF09D
:1021080005C02BF006C02CF007C02DF008C02EF03B
:1021180009C02FF00AC030F00BC031F02A50300F40
:10212800DF6E3206D8A033063406D8A0350636C08E
:1021380004F037C005F038C006F039C007F03AC0DF
:1021480008F03BC009F03CC00AF03DC00BF00A0E95
:102158000C6E000E0D6E000E0E6E000E0F6E000E51
:10216800106E000E116E000E126E000E136E62ECF1
:102178001AF004C036F005C037F006C038F007C0C2
:1021880039F008C03AF009C03BF00AC03CF00BC077
:102198003DF03E503F10D8B4D4EF10F0D6EF10F019
:1021A80007EF11F036503710381039103A103B103D
:1021B8003C103D10D8A4E3EF10F0E5EF10F057EF16
:1021C80010F033BEF2EF10F0335006E13204D8B00D
:1021D800F0EF10F0F2EF10F057EF10F035BEFDEF12
:1021E80010F0355008E13404D8A0FDEF10F0FFEFEF
:1021F80010F007EF11F00001DCB305EF11F007EF65
:1022080011F057EF10F020C015F021C016F04B0E5A
:102218003E24176E010E3F20186E34C019F035C0E9
:102228001AF016EC1CF015C020F016C021F01200B0
:1022380006C0D9FF07C0DAFFDF500F0B086E06C0D3
:10224800D9FF07C0DAFFDF38070B0A0DF35008245F
:1022580004C0D9FF05C0DAFFDF6E20EE01F004509C
:10226800D9260550DA2210EE01F00650E126075073
:10227800E222E7500F0B086E10EE01F00650E1263F
:102288000750E222E738070B0A0DF3500824DF6EE7
:1022980020EE02F00650D9260750DA22DFAC57EFBD
:1022A80011F059EF11F08AEF11F020EE02F004500E
:1022B800D9260550DA2210EE02F00650E126075022
:1022C800E222E7500F0B086E10EE02F00650E126EE
:1022D8000750E222E738030B010B0A0DF3500824DC
:1022E800DF6E20EE04F00450D9260550DA2210EEF5
:1022F80002F00650E1260750E222E738030B086E89
:10230800D8900830010BDF6EA5EF11F020EE02F037
:102318000450D9260550DA2210EE02F00650E126C4
:102328000750E222E7500F0B086E10EE02F006503D
:10233800E1260750E222E738030B0A0DF350082480
:10234800DF6E20EE05F00450D9260550DA2210EE93
:1023580003F00650E1260750E222E750070BDF6E34
:1023680020EE06F00450D9260550DA2210EE04F0CB
:102378000650E1260750E222E7500F0B086E10EED8
:1023880004F00650E1260750E222E738030B0A0D55
:10239800F3500824DF6E20EE07F00450D9260550CC
:1023A800DA2210EE05F00650E1260750E222E75047
:1023B8000F0B086E10EE05F00650E1260750E222DA
:1023C800E7B8E9EF11F0ECEF11F0010EEDEF11F0C5
:1023D800000E0A0DF3500824DF6E20EE08F00450BA
:1023E800D9260550DA2210EE06F00650E1260750ED
:1023F800E222E7500F0B086E10EE06F00650E126B9
:102408000750E222E7380F0B0A0DF3500824DF6E5D
:10241800120021EEBEF010EE13F0060EDBCFE3FF44
:10242800E806FCE210C01EF011C01FF01E501F107D
:10243800D8A421EF12F023EF12F027EF12F0130EB9
:102448001E6E000E1F6E1EC004F01FC005F02AECA1
:1024580024F004C022F005C023F0DAC020F0DBC06D
:1024680021F021BE3AEF12F03CEF12F051EF12F0DA
:102478002250205C2150800A126E2350800A125884
:10248800D8A049EF12F04BEF12F04DEF12F051EFD8
:1024980012F020C022F021C023F022C020F023C077
:1024A80021F0D8C01CF0D9C01DF00001DCB15FEFED
:1024B80012F061EF12F07EEF12F06FEF12F0000EE3
:1024C800066E200E056E0EC007F00FC008F0B1ECC6
:1024D8001BF0224A232A1C50225C2350800A126EC9
:1024E8001D50800A1258D8A07CEF12F07EEF12F02F
:1024F80063EF12F0000E1B6E000E1A6EA2EF12F0C0
:102508001EC0F6FF1FC0F7FFF86A070EF76403D076
:102518000800F55005D0F6CFE1FFF7CFE2FFE7500E
:10252800126E1250056E066A0EC007F00FC008F052
:10253800B1EC1BF01E4A1F2A1A4A1B2A20501A5CAB
:102548001B50800A126E2150800A1258D8A0AFEF93
:1025580012F0B1EF12F084EF12F00001DCA1B7EF36
:1025680012F0B9EF12F0D6EF12F0C7EF12F0000E2A
:10257800066E200E056E0EC007F00FC008F0B1EC15
:102588001BF0224A232A1C50225C2350800A126E18
:102598001D50800A1258D8A0D4EF12F0D6EF12F0CE
:1025A800BBEF12F022C00EF023C00FF01200000E95
:1025B800196E000E186E000E126E000E116EE7EF07
:1025C80012F00B4A0C2A010E176E0BC0F6FF0CC056
:1025D800F7FF0800F550200AD8B4F5EF12F0F7EF2E
:1025E80012F014EF13F0F70E0D6EFF0E0E6E0BC007
:1025F800F6FF0CC0F7FF0800F5500F6E106A0D507B
:102608000F260E501022105009E1050E0F5CD8A0BD
:1026180010EF13F012EF13F014EF13F0000E176E13
:1026280017C013F0146A13501410D8A41EEF13F037
:1026380020EF13F0E5EF12F02AEF13F0000E126E00
:10264800010E116E0B4A0C2A5FEF13F00BC0F6FF58
:102658000CC0F7FF0800F5500D6E0E6A0E50000A08
:10266800D8B439EF13F05FEF13F00D502B0AD8B43C
:1026780026EF13F0060AD8B422EF13F05FEF13F039
:1026880018C004F019C005F0000E076E0A0E066E99
:1026980061EC26F00BC0F6FF0CC0F7FF0800F55000
:1026A800045E000E055A300E0424186E000E052034
:1026B800196E26EF13F0D00E0D6EFF0E0E6E0BC0C6
:1026C800F6FF0CC0F7FF0800F5500F6E106A0D50AA
:1026D8000F260E50102210500AE10A0E0F5CD8A0E7
:1026E80078EF13F07BEF13F0010E7CEF13F0000E80
:1026F800156E166A15501610D8A485EF13F087EFDB
:1027080013F044EF13F011501210D8A48EEF13F009
:1027180090EF13F09EEF13F018C00DF019C00EF0F3
:102728000D1E0E1E0D4A0E2A0DC00BF00EC00CF029
:10273800A2EF13F018C00BF019C00CF01200000E35
:10274800156E13BEACEF13F0AAEF13F0BEEF13F043
:10275800131E121E111E101E0F1E0E1E0D1E0C6CB7
:10276800000E0D220E220F221022112212221322F5
:10277800010E156E0BBEC5EF13F0C3EF13F0D7EFC4
:1027880013F00B1E0A1E091E081E071E061E051E34
:10279800046C000E052206220722082209220A22BA
:1027A8000B22010E151A20EE16F0070EDE6AE80657
:1027B800FDE20C500D100E100F1010101110121019
:1027C8001310D8B4EAEF13F0ECEF13F03EEF14F067
:1027D800010E146EFAEF13F0D8900C360D360E3643
:1027E8000F361036113612361336142A13AEFFEF91
:1027F80013F001EF14F0F0EF13F0D89016361736F7
:10280800183619361A361B361C361D360C50045C21
:102818000D5005580E5006580F50075810500858BC
:102828001150095812500A5813500B58D8A01FEFCE
:1028380014F021EF14F032EF14F00C50045E0D5038
:10284800055A0E50065A0F50075A1050085A115080
:10285800095A12500A5A13500B5A1680D89013323C
:102868001232113210320F320E320D320C32142E57
:1028780001EF14F01550D8B444EF14F046EF14F0FB
:1028880056EF14F01D1E1C1E1B1E1A1E191E181EA4
:10289800171E166C000E1722182219221A221B2244
:1028A8001C221D2216C004F017C005F018C006F03F
:1028B80019C007F01AC008F01BC009F01CC00AF0C4
:1028C8001DC00BF0120030EC07F09B0E0001956F55
:1028D8007F0E966F000E986F010E976FFA0E996F24
:1028E800000E9A6F000E9B6F000E9C6F940E9D6FEA
:1028F800440E9E6F25EC15F0A20E0001956F7F0E19
:10290800966F000E986F020E976FC80E996F000EA3
:102918009A6F000E9B6F000E9C6F6A0E9D6F3F0EA4
:102928009E6F25EC15F0A90E0001956F7F0E966F2E
:10293800000E986F030E976F0A0E996F000E9A6F2C
:10294800000E9B6F000E9C6FE00E9D6F320E9E6F07
:1029580025EC15F0B00E0001956F7F0E966F000EF6
:10296800986F040E976FFA0E996F000E9A6F000E0B
:102978009B6F000E9C6F2C0E9D6F420E9E6F25EC78
:1029880015F0B70E0001956F7F0E966F000E986FC9
:10299800050E976F960E996F000E9A6F000E9B6F3B
:1029A800000E9C6F700E9D6F080E9E6F25EC15F043
:1029B800BE0E0001956F7F0E966F000E986F060E83
:1029C800976F640E996F000E9A6F000E9B6F000E42
:1029D8009C6FEC0E9D6F480E9E6F25EC15F0C50E92
:1029E8000001956F7F0E966F000E986F070E976F18
:1029F800640E996F000E9A6F000E9B6F000E9C6F0D
:102A0800520E9D6F3E0E9E6F25EC15F0CC0E000108
:102A1800956F7F0E966F000E986F080E976F880E51
:102A2800996F130E9A6F000E9B6F000E9C6F140E19
:102A38009D6F2D0E9E6F25EC15F0D3EC0BF034EF47
:102A480000F0010E0001A16F310E7D6F7F0E7E6FC9
:102A580039EC26F0CEEF15F095C004F096C005F0DD
:102A68002AEC24F0055009E10B0E045CD8A03FEFD6
:102A780015F041EF15F04AEF15F0EB0E00017D6FF0
:102A88007C0E7E6F39EC26F0D7EF15F00001A151CE
:102A98001A0D0C0EF324D96E020EF420DA6EDE0441
:102AA800DE10D8B45AEF15F05CEF15F0CDEF15F045
:102AB8009E0E7D6F7E0E7E6FA1C07FF0806B39EC1D
:102AC80026F00001A1519F6FA06BA1511A0D000EB5
:102AD800F324D96E020EF420DA6E9FC0DEFFA0C088
:102AE800DDFFA1511A0D100EF324046E020EF4201E
:102AF800056E95C006F096C007F0D8EC22F00001EC
:102B0800A1511A0D020EF324D96E020EF420DA6ECA
:102B180097C0DEFF98C0DDFFA1511A0D040EF32403
:102B2800D96E020EF420DA6E99C0DEFF9AC0DEFF7D
:102B38009BC0DEFF9CC0DEFF10EC26F00001A15117
:102B48001A0D080EF324D96E020EF420DA6E04C0B2
:102B5800DEFF05C0DEFF06C0DEFF07C0DEFFA151B5
:102B68001A0D0E0EF324D96E020EF420DA6E9DC0F3
:102B7800DEFF9EC0DDFFA1511A0D0C0EF324D96EA5
:102B8800020EF420DA6E010EDE6E000EDD6ED7EF57
:102B980015F0A12B080E0001A165D5EF15F0D7EFB0
:102BA80015F030EF15F01200000E156E0BBEE1EFB8
:102BB80015F0DFEF15F0F3EF15F00B1E0A1E091ED6
:102BC800081E071E061E051E046C000E052206229E
:102BD8000722082209220A220B22010E156E13BEB3
:102BE800FAEF15F0F8EF15F00AEF16F0131E121EA3
:102BF800111E101E0F1E0E1E0D1E0C6C000E0D2237
:102C08000E220F2210221122122213220C500D1014
:102C18000E100F101010111012101310D8B417EF57
:102C280016F019EF16F061EF16F0010E146E27EF8B
:102C380016F0D8900C360D360E360F361036113683
:102C480012361336142A13AE2CEF16F02EEF16F0A8
:102C58001DEF16F00C50045C0D5005580E50065828
:102C68000F500758105008581150095812500A5858
:102C780013500B58D8A043EF16F045EF16F055EF58
:102C880016F00C50045E0D50055A0E50065A0F509F
:102C9800075A1050085A1150095A12500A5A13501C
:102CA8000B5AD89013321232113210320F320E32C0
:102CB8000D320C32142E2EEF16F01550D8B467EFE3
:102CC80016F069EF16F079EF16F00B1E0A1E091EB2
:102CD800081E071E061E051E046C000E052206228D
:102CE8000722082209220A220B2204C004F005C088
:102CF80005F006C006F007C007F008C008F009C0D4
:102D080009F00AC00AF00BC00BF012000001DF0541
:102D1800D8A491EF16F093EF16F0C4EF16F0000E5A
:102D2800DF6F000E096E000E086E000E0B6E070EA8
:102D38000A6EB40E0C6E010E0D6EA10EF0EC18F0BA
:102D4800E806D8A4AAEF16F0ACEF16F0B6EF16F026
:102D58008C80890E00017D6F7D0E7E6F39EC26F028
:102D6800B4EF16F0F20E046E000E056EB40E066E89
:102D7800010E076E000E096E070E086E02EC24F0B5
:102D88000001E251D8A4CBEF16F0CDEF16F0D3EF47
:102D980016F0F70E956F7F0E966FD7EF16F0FB0EB5
:102DA800956F7F0E966FE351D8A4DDEF16F0DFEF35
:102DB80016F0E5EF16F0F70E976F7F0E986FE9EFB4
:102DC80016F0FB0E976F7F0E986FE451D8A4EFEFC3
:102DD80016F0F1EF16F0F7EF16F0F70E996F7F0E79
:102DE8009A6FFBEF16F0FB0E996F7F0E9A6F690EC4
:102DF8007D6F7C0E7E6FF4C07FF0806BF3C081F036
:102E0800826BF2C083F0846BF7C085F0866B99C043
:102E180087F09AC088F0F551896F8A6B89BF8A0755
:102E280097C08BF098C08CF0F6518D6F8E6B8DBF6C
:102E38008E0795C08FF096C090F0F8C091F0926B15
:102E480039EC26F01200000E0001A76FF90E0B6E88
:102E5800000E0C6E38EC1DF00009D8A436EF17F000
:102E680038EF17F0BEEF17F00001FAAF3EEF17F09A
:102E780040EF17F046EF17F0010EA76FF96DFA1F34
:102E8800D8B0FA2BF9C095F0FAC096F0040E976FF7
:102E9800D89096339533972F4CEF17F0955193C0F0
:102EA800D9FF94C0DAFFDF6E0F0EF915046E056ABC
:102EB800020E076E710E066E61EC26F004C00AF071
:102EC80005C00BF0030E0D6EE80E0C6E34EC20F00E
:102ED8000AC0A5F00BC0A6F091C07DF092C07EF0AC
:102EE800D30E00017F6F7F0E806FF9C095F0FAC096
:102EF80096F0040E976FD89096339533972F7FEFFF
:102F080017F095C081F096C082F0A5C083F0A6C0E6
:102F180084F088EC23F00001A705D8A496EF17F0F9
:102F280098EF17F0BBEF17F0980E7D6F000E7E6FCD
:102F3800F30E7F6F7F0E806F91C081F092C082F098
:102F480088EC23F091C004F092C005F0980E066E4C
:102F5800000E076ED8EC22F093C0D9FF94C0DAFFB8
:102F6800DF50000893C0D9FF94C0DAFFDF6E000E6F
:102F7800BFEF17F0010E1200F1EC26F06EEC20F016
:102F88000009D8A4CAEF17F0CCEF17F057EF18F0E4
:102F9800330EAAEC25F0A7EC20F00D6E0D50176E3D
:102FA800186A196A1A6A1B6A1C6A1D6A1E6A000E68
:102FB8001F6E1F50080DF3CF0DF0080E0D26A7EC5D
:102FC80020F00E6E0EC00FF0106A116A126A136AB2
:102FD800146A156A166A0D2AFBEF17F0D8900F3697
:102FE80010361136123613361436153616360D2E9F
:102FF800F2EF17F00F501712105018121150191243
:1030080012501A1213501B1214501C1215501D1274
:1030180016501E121F2A050E1F6415EF18F017EF21
:1030280018F0DDEF17F0A7EC20F00D6E0DC00EF0D4
:103038000F6A106A116A126A136A146A156A380EDE
:10304800D8900E360F36103611361236133614361F
:103058001536E82E24EF18F00E5017120F501812DC
:103068001050191211501A1212501B1213501C1220
:1030780014501D1215501E120BC0D9FF0CC0DAFFD8
:1030880017C0DEFF18C0DEFF19C0DEFF1AC0DEFF62
:103098001BC0DEFF1CC0DEFF1DC0DEFF1EC0DEFF42
:1030A800000E58EF18F0010E1200126E5B905BC014
:1030B80006F0400EDCEC24F0D2EF18F01250800F2E
:1030C800106E12500D6E0E6A800E0D26000E0E2226
:1030D800040E0F6E0E340E320D320F2E6EEF18F0F6
:1030E8000D50116E11501AEC25F010501AEC25F005
:1030F800EFEF18F01250C00F106E12500D6E0E6ADE
:10310800C00E0D26000E0E22040E0F6E0E340E3267
:103118000D320F2E8AEF18F00D50116E11501AEC67
:1031280025F010501AEC25F0EFEF18F01250940F1C
:10313800106E12500D6E0E6A940E0D26000E0E22A1
:10314800040E0F6E0E340E320D320F2EA6EF18F04D
:103158000D50116E11501AEC25F010501AEC25F094
:10316800EFEF18F01250D40F106E12500D6E0E6A59
:10317800D40E0D26000E0E22040E0F6E0E340E32E3
:103188000D320F2EC2EF18F00D50116E11501AECBF
:1031980025F010501AEC25F0EFEF18F00C500D6EDA
:1031A8000E6A0E50000AD8B4DCEF18F0EFEF18F0F2
:1031B8000D50010AD8B462EF18F0030AD8B47EEFB4
:1031C80018F0010AD8B49AEF18F0070AD8B4B6EF85
:1031D80018F0EFEF18F01200126E100E095CD8A06C
:1031E800F8EF18F0FAEF18F0FDEF18F0010E6FEF96
:1031F80019F03AEC27F01204E1EC25F0E806D8A41F
:1032080008EF19F00AEF19F00CEF19F0FAEF18F0BF
:1032180008C006F009C007F038EC25F0E806D8A485
:1032280018EF19F01AEF19F01CEF19F0FAEF18F06F
:1032380026EC27F01250E1EC25F0E806D8A427EF99
:1032480019F029EF19F02BEF19F0FAEF18F0000E2A
:10325800146E000E136E61EF19F0FF0E0E6EFF0E66
:103268000F6E0AC010F00BC011F00E5010260F5050
:1032780011221350101807E114501118D8A447EF61
:1032880019F049EF19F055EF19F0000EC6EC25F0CA
:103298000CC0D9FF0DC0DAFFDF6E0C4A0D2A6CEFA7
:1032A80019F0010EC6EC25F00CC0D9FF0DC0DAFFED
:1032B800DF6E0C4A0D2A134A142A0A50135C0B506D
:1032C8001458D8A06AEF19F06CEF19F031EF19F023
:1032D80030EC27F0000E12000001EB51F419D8A4CD
:1032E80078EF19F07AEF19F0A0EF19F0EA51F31915
:1032F800D8A481EF19F083EF19F0A0EF19F0F3517A
:10330800EAC004F0056A045E000E055AF751066E1D
:10331800076A0450065C0750800A086E0550800A48
:103328000858D8A09AEF19F09CEF19F0A0EF19F0FF
:10333800010EE46FA2EF19F0000EE46FF851F5C02A
:1033480004F0056A04BE0506045E000E055AFCC0BA
:1033580006F0076A06BE07060450065C0750800A96
:10336800086E0550800A0858D8A0BDEF19F0BFEFC5
:1033780019F0C3EF19F0010EE36FC5EF19F0000E55
:10338800E36FFCC004F0056A04BE0506F851F6C0F8
:1033980006F0076A06BE07060626000E0722045036
:1033A800065C0750800A086E0550800A0858D8A0A5
:1033B800E0EF19F0E2EF19F0E6EF19F0010EE26F15
:1033C800E8EF19F0000EE26F12003AEC27F0D00E89
:1033D800E1EC25F0E806D8A4F4EF19F0F6EF19F0BF
:1033E800F9EF19F0010E61EF1AF0000EE1EC25F08B
:1033F800E806D8A402EF1AF004EF1AF006EF1AF064
:10340800F6EF19F026EC27F0D10EE1EC25F0E806EE
:10341800D8A411EF1AF013EF1AF015EF1AF0F6EF1F
:1034280019F0000E126E000E116E060E1118121011
:10343800D8A421EF1AF023EF1AF02FEF1AF09F0EFD
:103448001124D96E010E1220DA6E000EC6EC25F09A
:10345800DF6E46EF1AF09F0E1124D96E010E12206E
:10346800DA6E010EC6EC25F0DF6E114A122A1250F0
:1034780009E1070E115CD8A044EF1AF046EF1AF0E4
:1034880019EF1AF030EC27F0A60E046E010E056E47
:103498009F0E066E010E076E000E096E070E086E6F
:1034A80002EC24F00FC004F010C005F0A60E066E62
:1034B800010E076E1CEC11F0000E120020EE14F045
:1034C800070EDE6AE806FDE20C500D100E100F1014
:1034D8001010111012101310D8B475EF1AF077EFFE
:1034E8001AF0C9EF1AF0010E1C6E85EF1AF0D89089
:1034F8000C360D360E360F36103611361236133698
:103508001C2A13AE8AEF1AF08CEF1AF07BEF1AF030
:10351800D8901436153616361736183619361A3620
:103528001B360C50045C0D5005580E5006580F50B1
:103538000758105008581150095812500A5813507B
:103548000B58D8A0AAEF1AF0ACEF1AF0BDEF1AF09A
:103558000C50045E0D50055A0E50065A0F50075A6B
:103568001050085A1150095A12500A5A13500B5A3F
:103578001480D89013321232113210320F320E32B8
:103588000D320C321C2E8CEF1AF014C004F015C04A
:1035980005F016C006F017C007F018C008F019C0EB
:1035A80009F01AC00AF01BC00BF0120004C00BF09F
:1035B80005C00CF006C00DF007C00EF00806D8A034
:1035C8000906082806E10928D8A4EDEF1AF0EFEF5C
:1035D8001AF0FCEF1AF0000E056E000E046E48EFAC
:1035E8001BF00B4A0C2A0D4A0E2A0806D8A0090619
:1035F8000BC0F6FF0CC0F7FF0800F5500009D8B45F
:1036080008EF1BF00AEF1BF036EF1BF00DC0F6FFBA
:103618000EC0F7FF0800F5500009D8B416EF1BF0EC
:1036280018EF1BF036EF1BF008500910D8B41FEF45
:103638001BF021EF1BF036EF1BF00BC0F6FF0CC0A0
:10364800F7FF0800F5CF0AF00DC0F6FF0EC0F7FF30
:103658000800F5500A18D8B434EF1BF036EF1BF009
:10366800F5EF1AF00BC0F6FF0CC0F7FF0800F5CF16
:103678000AF00DC0F6FF0EC0F7FF0800F5500A5C0F
:10368800046E056AD8A0050612000C500D100E1025
:103698000F101010111012101310D8B456EF1BF0A1
:1036A80058EF1BF0A0EF1BF0010E146E66EF1BF035
:1036B800D8900C360D360E360F36103611361236B7
:1036C8001336142A13AE6BEF1BF06DEF1BF05CEF93
:1036D8001BF00C50045C0D5005580E5006580F5046
:1036E8000758105008581150095812500A581350CA
:1036F8000B58D8A082EF1BF084EF1BF094EF1BF05F
:103708000C50045E0D50055A0E50065A0F50075AB9
:103718001050085A1150095A12500A5A13500B5A8D
:10372800D89013321232113210320F320E320D325B
:103738000C32142E6DEF1BF004C004F005C005F028
:1037480006C006F007C007F008C008F009C009F075
:103758000AC00AF00BC00BF0120007500810D8B4CA
:10376800B8EF1BF0BAEF1BF0C3EF1BF007500810BF
:10377800D8A4C1EF1BF0C3EF1BF0C8EF1BF0055036
:10378800E6EC26F015EF1CF020EE04F00750D926E1
:103798000850DA22DE50DE10D8B4D5EF1BF0D7EF90
:1037A8001BF0F2EF1BF020EE04F00750D92608506A
:1037B800DA2210EE02F00750E1260850E222DE502D
:1037C800E65CE650800A0D6EDE50800A0D58D8B0CF
:1037D800F0EF1BF0F2EF1BF015EF1CF020EE02F0FB
:1037E8000750D9260850DA22DECF09F0DDCF0AF0DB
:1037F80007C0D9FF08C0DAFFDECF0BF0DDCF0CF031
:1038080009500B24D96E0A500C20DA6E05C0DFFF70
:1038180020EE02F00750D9260850DA22DE2A000EE0
:10382800DD2212000001DCA11CEF1CF01EEF1CF0D1
:1038380028EF1CF017C00EF018C00FF015C010F0DC
:1038480016C011F09AEC24F01ABE2DEF1CF02FEFE1
:103858001CF035EF1CF019C01EF01AC01FF039EF2C
:103868001CF0000E1F6E000E1E6E000E1D6E000E68
:103878001C6E4BEF1CF0000E066E200E056E15C078
:1038880007F016C008F0B1EC1BF01C4A1D2A1E50A8
:103898001C5C1D50800A1B6E1F50800A1B58D8A044
:1038A80058EF1CF05AEF1CF03FEF1CF00001DCB1A0
:1038B80060EF1CF062EF1CF06CEF1CF017C00EF00C
:1038C80018C00FF015C010F016C011F09AEC24F0D3
:1038D80017C004F018C005F02AEC24F01E50042488
:1038E800156E1F500520166E1200000E096E07BED9
:1038F80082EF1CF080EF1CF088EF1CF0066C071EAE
:10390800D8B0072A010E096E05BE8FEF1CF08DEFA7
:103918001CF095EF1CF0046C051ED8B0052A010EAA
:10392800091A000E0B6E000E0A6E06500710D8B466
:10393800A0EF1CF0A2EF1CF0CAEF1CF0010E086EFD
:10394800AAEF1CF0D89006360736082A07AEAFEF64
:103958001CF0B1EF1CF0A6EF1CF0D8900A360B361D
:103968000650045C07500558D8A0BDEF1CF0BFEF07
:103978001CF0C4EF1CF00650045E0750055A0A807C
:10398800D89007320632082EB1EF1CF00950D8B48F
:10399800D0EF1CF0D2EF1CF0D6EF1CF00A6C0B1E17
:1039A800D8B00B2A0AC004F00BC005F01200A60E0E
:1039B8000C6E010E0D6E11C00EF012C00FF040EC2F
:1039C8000DF09F0E046E010E056EA60E066E010E1A
:1039D800076E000E096E070E086E02EC24F03AEC32
:1039E80027F0D00EE1EC25F0E806D8A4FEEF1CF095
:1039F80000EF1DF003EF1DF0010E37EF1DF0000E74
:103A0800E1EC25F0E806D8A40CEF1DF00EEF1DF050
:103A180010EF1DF000EF1DF0000E146E000E136E77
:103A28009F0E1324D96E010E1420DA6EDF50E1ECDC
:103A380025F0E806D8A423EF1DF025EF1DF027EFA9
:103A48001DF000EF1DF0134A142A145009E1070E67
:103A5800135CD8A032EF1DF034EF1DF014EF1DF009
:103A680030EC27F0000E12000BC0D9FF0CC0DAFFB3
:103A7800000EDE6E000EDD6EF1EC26F06EEC20F02E
:103A88000009D8A44AEF1DF04CEF1DF08FEF1DF090
:103A9800CC0EAAEC25F0440EAAEC25F0A7EC20F0F9
:103AA8000009D8B45AEF1DF05CEF1DF052EF1DF07D
:103AB800F1EC26F06EEC20F00009D8A466EF1DF0BA
:103AC80068EF1DF08FEF1DF0CC0EAAEC25F0BE0EAE
:103AD800AAEC25F0A7EC20F00D6E0E6A0BC0D9FFFA
:103AE8000CC0DAFF0DC0DEFF0EC0DDFFA7EC20F032
:103AF8000D6E0D500F6E0E6A0BC0D9FF0CC0DAFFA9
:103B08000E50DE120F50DD12F1EC26F06EEC27F0AD
:103B1800000E92EF1DF06EEC27F0010E1200000E61
:103B2800096E05BE9CEF1DF09AEF1DF0A2EF1DF087
:103B3800046C051ED8B0052A010E096E07BEA9EF50
:103B48001DF0A7EF1DF0ADEF1DF0066C071ED8B0F5
:103B5800072A06500710D8B4B4EF1DF0B6EF1DF0D1
:103B6800DAEF1DF0010E086EBEEF1DF0D890063694
:103B78000736082A07AEC3EF1DF0C5EF1DF0BAEFF0
:103B88001DF00650045C07500558D8A0CEEF1DF074
:103B9800D0EF1DF0D4EF1DF00650045E0750055A13
:103BA800D89007320632082EC5EF1DF00950D8B458
:103BB800E0EF1DF0E2EF1DF0E6EF1DF0046C051ECE
:103BC800D8B0052A04C004F005C005F012006B0E39
:103BD80000017D6F010E7E6FCA0E7F6F7E0E806FB3
:103BE800EBC081F0826BEAC083F0846BE9C085F09A
:103BF800866B8B0E876F010E886F88EC23F0010EA1
:103C08000C6E000E59EC18F06B0E0F6E010E106E54
:103C1800B3EC21F0010E0C6E0E0E59EC18F0010EEB
:103C280025EC26F0010E0C6E0F0E59EC18F0430E21
:103C380087EC26F06B0E00017D6F010E7E6F870EFC
:103C48007F6F7E0E806FEFC081F0826BF0C083F0D3
:103C5800846BF1C085F0866B88EC23F0020E0C6E45
:103C6800000E59EC18F06B0E0F6E010E106EB3ECCF
:103C780021F01200000E0C6E000E0D6E000E0E6E7E
:103C8800000E0F6E085009100A100B10D8B44FEF31
:103C98001EF051EF1EF087EF1EF0010E106E5BEF65
:103CA8001EF0D890083609360A360B36102A0BAEA5
:103CB80060EF1EF062EF1EF055EF1EF0D8900C3644
:103CC8000D360E360F360850045C095005580A5058
:103CD80006580B500758D8A074EF1EF076EF1EF068
:103CE8007FEF1EF00850045E0950055A0A50065A24
:103CF8000B50075A0C80D8900B320A32093208321E
:103D0800102E62EF1EF00CC004F00DC005F00EC0BE
:103D180006F00FC007F012000D6E080E106E0AC0F4
:103D28000EF00BC00FF03AEC27F00D50E1EC25F047
:103D3800E806D8A4A2EF1EF0A4EF1EF0A7EF1EF02D
:103D4800010EDEEF1EF008C006F009C007F038ECDF
:103D580025F0E806D8A4B3EF1EF0B5EF1EF0CBEFC0
:103D68001EF0A4EF1EF00EC0D9FF0FC0DAFF0E4AF6
:103D78000F2ADF50E1EC25F0E806D8A4C6EF1EF0C4
:103D8800C8EF1EF0CAEF1EF0A4EF1EF01006105088
:103D9800D8A4D1EF1EF0D3EF1EF0B7EF1EF030EC31
:103DA80027F04E0E0C6EEB0EE82EFED70C2EFCD72D
:103DB80000F0000E1200066E95928C9212EF1FF022
:103DC800000EBC6E2D0EBC64ECEF1EF0EEEF1EF084
:103DD800E6EF1EF09582000EBC6E010EBC64F7EF94
:103DE8001EF0F9EF1EF0F1EF1EF028EF1FF0000EA5
:103DF800BC6E010EBC6403EF1FF005EF1FF0FDEF72
:103E08001EF09582000EBC6E2C0EBC640EEF1FF0E7
:103E180010EF1FF008EF1FF028EF1FF00650010BFE
:103E2800046E056A0550000AD8B41DEF1FF028EF8C
:103E38001FF00450000AD8B4E4EF1EF0010AD8B409
:103E4800FBEF1EF028EF1FF012000001E005D8A4D8
:103E580030EF1FF032EF1FF070EF1FF0000EE06F31
:103E6800AD0E046E010E056EF20E066E000E076EA4
:103E7800000E096E070E086E02EC24F0000E096EA3
:103E8800000E086EAD0E0A6E010E0B6EA00E90ECC1
:103E98001EF0E806D8A453EF1FF055EF1FF05FEFB0
:103EA8001FF08C80640E00017D6F7D0E7E6F39ECF3
:103EB80026F05DEF1FF0010E0001DF6FF9EC25F031
:103EC800F40E0C6E010E0D6E000E0E6E000E0F6ECF
:103ED800DAEC23F0D9EC26F01200F1EC26F06EECC7
:103EE80020F00009D8A47BEF1FF07DEF1FF0B3EF9F
:103EF8001FF0CC0EAAEC25F04E0EAAEC25F00BC054
:103F0800D9FF0CC0DAFFDF50AAEC25F020EE01F053
:103F18000B50D9260C50DA22DF50AAEC25F020EEFF
:103F280002F00B50D9260C50DA22DF500D6E050E28
:103F38000E6ED8900D360E2E9DEF1FF00D50AAEC88
:103F480025F0F1EC26F020EE02F00B50D9260C50AB
:103F5800DA22DF500101C56F000EB4EF1FF0010E29
:103F680012006BEC27F0E806D8A4BDEF1FF0BFEFF6
:103F78001FF0F7EF1FF063EC27F0E90E0F6E000E4D
:103F8800106EE9EC19F0E806D8A4CDEF1FF0CFEFDA
:103F98001FF0D9EF1FF08C80F80E00017D6F7D0EA9
:103FA8007E6F39EC26F0D7EF1FF0B90E00017D6F58
:103FB8007C0E7E6FEFC07FF0806BF0C081F0826B6B
:103FC800F1C083F0846BEEC085F0866BEBC087F0A0
:103FD800886BEAC089F08A6BE9C08BF08C6B39EC8E
:103FE80026F0EBEC1DF01200FB0E046E000E056EC1
:103FF8000FC006F010C007F0000E096E010E086E23
:1040080002EC24F03AEC27F0D00EE1EC25F0E806BB
:10401800D8A411EF20F013EF20F016EF20F0010ED6
:1040280033EF20F0070EE1EC25F0E806D8A41FEFE7
:1040380020F021EF20F023EF20F013EF20F0000113
:10404800FB51E1EC25F0E806D8A42DEF20F02FEF86
:1040580020F031EF20F013EF20F030EC27F01200C1
:10406800000E0F6E000E0E6E0C500D10D8B43FEF00
:1040780020F041EF20F069EF20F0010E106E49EFBB
:1040880020F0D8900C360D36102A0DAE4EEF20F0E9
:1040980050EF20F045EF20F0D8900E360F360C5038
:1040A8000A5C0D500B58D8A05CEF20F05EEF20F0B2
:1040B80063EF20F00C500A5E0D500B5A0E80D8901A
:1040C8000D320C32102E50EF20F00EC00AF00FC047
:1040D8000BF01200000EBC6E70EC27F083A277EF95
:1040E80020F079EF20F081EF20F02D0EBC647FEFF7
:1040F80020F081EF20F072EF20F083B286EF20F0FD
:1041080088EF20F090EF20F0B80EBC648EEF20F01E
:1041180090EF20F081EF20F0BA0EBC6496EF20F00B
:1041280098EF20F09BEF20F0010EA6EF20F0000E94
:10413800BC6E8A0EBC64A3EF20F0A5EF20F09DEFC3
:1041480020F0000E1200000E076E000E086EDFEC65
:1041580020F0E806D8A4B3EF20F0B5EF20F0C5EFC3
:1041680020F008C005F0010E066E052ABEEF20F00B
:10417800D8900636052EBCEF20F006500712D4EF73
:1041880020F008C005F0010E066E052ACEEF20F0DB
:10419800D8900636052ECCEF20F00650FF0A0716F9
:1041A800082A070E0864DBEF20F0DDEF20F0ABEF04
:1041B80020F00750120095928C92000EBC6E010EF2
:1041C800BC64E9EF20F0EBEF20F0E3EF20F09582FC
:1041D800000EBC6E090EBC64F4EF20F0F6EF20F080
:1041E800EEEF20F083B2FBEF20F0FEEF20F0010E9F
:1041F800FFEF20F0000E046E000EBC6E220EBC64B1
:1042080008EF21F00AEF21F002EF21F0000EBC6E5A
:10421800010EBC6412EF21F014EF21F00CEF21F035
:10422800045012000001E405D8A41DEF21F01FEF8F
:1042380021F032EF21F08CBC24EF21F027EF21F0A0
:10424800010E28EF21F0000EFF0A046E043A04461E
:1042580004468C500418BF0B04188C6EE305D8A4D0
:1042680038EF21F03AEF21F03DEF21F08C8E3EEF50
:1042780021F08C9EE205D8A444EF21F046EF21F00E
:1042880049EF21F08B844AEF21F08B941200980EAD
:10429800F66E4E0EF76E000EF86E01EEBEF010EEE2
:1042A8000CF00900F5CFEEFFE550E150FAE1E80E19
:1042B800F66E4E0EF76E000EF86E0900F5CF5BF045
:1042C80002EE00F0D00EEE6AE806FDE101EE00F025
:1042D800BE0EEE6AE806FDE100EED8F0260EEE6AA4
:1042E800E806FDE15A6A596A5C905C92000EF86E25
:1042F800000167EF14F06B0E00017D6F010E7E6FF9
:10430800FE0E7F6F7E0E806FF551816F826B81BFCD
:104318008207F651836F846B83BF840788EC23F090
:10432800010E0C6E000E59EC18F0DC0E0F6E7E0EAE
:10433800106EB3EC21F0010E0C6E0D0E59EC18F056
:10434800010E25EC26F0020E0C6E010E59EC18F049
:104358006B0E0F6E010E106EB3EC21F012000FC041
:1043680011F010C012F0CDEF21F011C0F6FF12C00D
:10437800F7FFF86A070EF76403D00800F55005D078
:10438800F6CFE1FFF7CFE2FFE75087EC26F0114ABE
:10439800122A11C0F6FF12C0F7FFF86A070EF76479
:1043A80003D00800F55005D0F6CFE1FFF7CFE2FFC4
:1043B800E7500009D8A4E3EF21F0E5EF21F0B9EFC9
:1043C80021F012000F015D9D5D9F949C948E080E54
:1043D800B86E000E046E6C0E056EDC0E066E020ED4
:1043E800076E11C008F012C009F013C00AF014C01B
:1043F8000BF03EEC1EF0030E07EF22F0D8900732C8
:10440800063205320432E82E02EF22F0FF0E0424B1
:10441800156EFF0E0520166E15C0AFFF1650B06E54
:10442800240EAC6E900EAB6E120079C057F07AC0B5
:1044380058F0000E01013B6F000E3A6F37EF22F083
:1044480077C047F078C048F0570E496E000E4A6EA4
:104458007BC04BF07CC04CF036EC00F047500101BB
:104468003A2748503B2357C0F6FF58C0F7FF0800CB
:10447800F5500009D8A443EF22F045EF22F024EFCD
:1044880022F03AC177F03BC178F012008B0E0001A0
:10449800916F010E926FFC0E936F000E946F27ECD4
:1044A80017F00009D8A45BEF22F05DEF22F06FEF60
:1044B80022F0650E00017D6F7E0E7E6F8B0E7F6F82
:1044C800010E806FFC51816F826B81BF820739ECCE
:1044D80026F079EF22F08C80D30E00017D6F7D0EDF
:1044E8007E6F39EC26F077EF22F012009F0E0C6EEB
:1044F800FF0E0D6E0AC00EF00BC00FF00C500E260A
:104508000D500F220F500AE11A0E0E5CD8A08FEF43
:1045180022F092EF22F0010E93EF22F0000E106EBF
:10452800116A10501110D8B49CEF22F09EEF22F0BF
:10453800A4EF22F05F0E0A140A6E0B6AA8EF22F0AD
:104548000AC00AF00BC00BF01200C69A0F015C916A
:104558005C9393809382C78EC79CC650F00B080962
:10456800C66E000E046E6C0E056EDC0E066E020E34
:10457800076E11C008F012C009F013C00AF014C089
:104588000BF03EEC1EF0030ECFEF22F0D89007326E
:10459800063205320432E82ECAEF22F00404C86E4F
:1045A800000EC56EC68A120006C00AF007C00BF0DE
:1045B80004C00CF005C00DF00A50086E0B50096ECF
:1045C8000A4A0B2A08C0F6FF09C0F7FFF86A0CC0B0
:1045D800D9FF0DC0DAFF0C4A0D2A070EF76403D085
:1045E8000800F55005D0F6CFE1FFF7CFE2FFE7501E
:1045F800DF6EDF50D8A403EF23F005EF23F0E0EFE0
:1046080022F012006B0E00017D6F010E7E6F880E86
:104618007F6F7F0E806FF8C081F0826B88EC23F08B
:10462800010E0C6E000E59EC18F0ED0E0F6E7E0E9A
:10463800106EB3EC21F0010E0C6E0D0E59EC18F053
:10464800010E25EC26F0020E0C6E010E59EC18F046
:104658006B0E0F6E010E106EB3EC21F012006B0E94
:1046680000017D6F010E7E6FB50E7F6F7E0E806F2D
:10467800F4C081F0826BF3C083F0846BF2C085F0E4
:10468800866B88EC23F0010E0C6E000E59EC18F0C6
:104698007B0E0F6E7F0E106EB3EC21F0020E0C6EC7
:1046A800010E59EC18F06B0E0F6E010E106EB3EC84
:1046B80021F012005BC006F0400EDCEC24F0030E83
:1046C8001AEC25F0030E1AEC25F0030E1AEC25F06F
:1046D800020E1AEC25F0020E1AEC25F0080E1AEC60
:1046E80025F0000E1AEC25F0080E1AEC25F0000E45
:1046F8001AEC25F0010E1AEC25F0000E1AEC25F044
:104708000C0E1AEC25F01200810E0001896F000EC4
:104718008A6F7DC08BF07EC08CF0000E8E6F000E0D
:104728008D6F000E906F000E8F6F8B0E776F000EDF
:10473800786F7FC079F080C07AF0890E7B6F000EA9
:104748007C6F19EC22F000018D517D25D96E8E51B8
:104758007E21DA6E000EDF6E1200010E0A6E200E48
:1047680004180510D8B4BBEF23F0BDEF23F0D6EF43
:1047780023F0F70E066EFF0E076E04C008F005C0A2
:1047880009F00650082607500922095009E1050ECC
:10479800085CD8A0D2EF23F0D4EF23F0D6EF23F0B3
:1047A800000E0A6E0AC004F0056A120010EC26F02A
:1047B80004C014F005C015F006C016F007C017F0C5
:1047C80010EC26F01450045C106E15500558116E4C
:1047D80016500658126E17500758136E10500C5C7E
:1047E80011500D5812500E5813500F58D8B0FFEFF3
:1047F80023F001EF24F0E4EF23F0120006C00CF0E0
:1048080007C00DF004C00AF005C00BF01CEF24F03F
:104818000CC0D9FF0DC0DAFFDF500E6E0C4A0D2A0E
:104828000AC0D9FF0BC0DAFF0EC0DFFF0A4A0B2A05
:104838000806D8A00906082806E10928D8A427EF01
:1048480024F029EF24F00CEF24F0120004C006F045
:1048580005C007F032EF24F0044A052A04C0F6FF29
:1048680005C0F7FFF86A070EF76403D00800F55093
:1048780005D0F6CFE1FFF7CFE2FFE7500009D8A453
:1048880048EF24F04AEF24F030EF24F00650045C9F
:10489800046E07500558056E12006B0E00017D6FFF
:1048A800010E7E6F920E7F6F7F0E806FF7C081F0D2
:1048B800826B88EC23F0010E0C6E000E59EC18F098
:1048C8006D0E0F6E7F0E106EB3EC21F0020E0C6EA3
:1048D800010E59EC18F06B0E0F6E010E106EB3EC52
:1048E80021F012000001E105D8A47DEF24F07FEF4C
:1048F80024F099EF24F0000EE16FE90E116E000E1E
:10490800126EDBEC1CF0E806D8A48DEF24F08FEFD4
:1049180024F099EF24F08C80AE0E00017D6F7D0E9F
:104928007E6F39EC26F097EF24F01200000E146E1B
:10493800000E136EABEF24F012C005F0066A10C02B
:1049480007F011C008F0B1EC1BF0134A142A1350F9
:104958000E24D96E14500F20DA6EDF50126E1250EA
:10496800D8A4B9EF24F0BBEF24F0A0EF24F0120094
:1049780017BEC9EF24F0175006E11604D8B0C7EFE8
:1049880024F0C9EF24F0D7EF24F016C018F017C0B0
:1049980019F0181E191E184A192A18C016F019C03D
:1049A80017F0DBEF24F016C016F017C017F012004E
:1049B800076E3AEC27F00750E1EC25F0E806D8A49A
:1049C800E8EF24F0EAEF24F0ECEF24F0FBEF24F01A
:1049D8000650E1EC25F0E806D8A4F5EF24F0F7EF4F
:1049E80024F0F9EF24F0FBEF24F030EC27F012006C
:1049F8009F0E066EFF0E076E200E0410086E000E46
:104A08000510096E065008260750092209500AE1C8
:104A18001A0E085CD8A013EF25F016EF25F0010E4A
:104A280017EF25F0000E046E056A12000B6E5B94FA
:104A38005BC006F0400EDCEC24F05B845BC006F043
:104A4800400EDCEC24F00B50AAEC26F0200E0A6E87
:104A58002A0EE82EFED70A2EFCD75B945BC006F020
:104A6800400EDCEC24F0120007500F0BE1EC25F0AF
:104A7800E806D8A442EF25F044EF25F047EF25F0EB
:104A8800010E55EF25F00650E1EC25F0E806D8A414
:104A980050EF25F052EF25F054EF25F044EF25F0C4
:104AA800000E12009F0E066EFF0E076E04C008F07F
:104AB80005C009F0065008260750092209500AE1E6
:104AC8001A0E085CD8A06BEF25F06EEF25F0010EEA
:104AD8006FEF25F0000E046E056A1200BF0E066E19
:104AE800FF0E076E04C008F005C009F0065008263E
:104AF8000750092209500AE11A0E085CD8A087EF6E
:104B080025F08AEF25F0010E8BEF25F0000E046EDC
:104B1800056A1200D00E066EFF0E076E04C008F07C
:104B280005C009F0065008260750092209500AE175
:104B38000A0E085CD8A0A3EF25F0A6EF25F0010E19
:104B4800A7EF25F0000E046E056A1200096E000E2C
:104B58000A6E0AC007F009C008F0072AB6EF25F068
:104B6800D8900832072EB4EF25F00850DFEC1EF07D
:104B78000A2A070E0A64C3EF25F0C5EF25F0ADEF4A
:104B880025F01200046EC5869EA6CDEF25F0CFEF66
:104B980025F0C8EF25F09E96C7900404D8A4D7EF57
:104BA80025F0D9EF25F0DDEF25F007EC27F0DFEF52
:104BB80025F0FCEC26F0C9501200046E04C0C9FFB1
:104BC8009EA6E9EF25F0EBEF25F0E4EF25F09E96A1
:104BD800C5BCF1EF25F0F4EF25F0010EF5EF25F057
:104BE800000E056EC59C05501200010E0C6E000EDD
:104BF80059EC18F05F0E0F6E7F0E106EB3EC21F0BB
:104C0800020E0C6E000E59EC18F0510E0F6E7F0E4E
:104C1800106EB3EC21F01200F29EF29C2EC108F047
:104C28002FC109F030C10AF031C10BF0F28EF28CBD
:104C380008C004F009C005F00AC006F00BC007F070
:104C480012000C6E5B805BC006F0400EDCEC24F0BA
:104C5800000E1AEC25F00C041AEC25F05B905BC0F2
:104C680006F0400EDCEC24F012007F0E0001936F7A
:104C7800000E946F000E776F000E786F7DC079F08C
:104C88007EC07AF0930E7B6F000E7C6F19EC22F0D9
:104C980012009DA052EF26F054EF26F05FEF26F0A9
:104CA8009EA059EF26F05BEF26F05FEF26F058EC58
:104CB80027F044EC27F05C92110004500602F3CF71
:104CC80008F0F4CF09F004500702F3500926055004
:104CD8000602F350092608C004F009C005F01200C6
:104CE800046E04C0E5F0CD90CD969480CD503F0B76
:104CF8008009CD6ECF0ECD16CD94CF68DE0ECE6E68
:104D0800CD80CC9E12000E6E0E380F0B0C6E0EC0AE
:104D18000DF05B805BC006F0400EDCEC24F00C501C
:104D28001AEC25F00D501AEC25F012009582000EB1
:104D3800BC6E70EC27F0010EBC64A5EF26F0A7EF5F
:104D480026F09FEF26F06EEC27F01200096E0F0E8A
:104D58005B1609C008F00F0E08160838F00B5B1236
:104D68005BC006F0400EDCEC24F012009D809E90A3
:104D78000001E505D8A4C3EF26F0C5EF26F0C8EF7B
:104D880026F09F80C9EF26F09F90120094948B9490
:104D9800000E0F015C6F9384000E5E6F3C0E95123F
:104DA8003E0E95163E0E8C1612005B905BC006F008
:104DB800400EDCEC24F0000E1AEC25F0010E1AEC83
:104DC80025F01200046EACA2ECEF26F0EEEF26F010
:104DD800E7EF26F004C0ADFF120095928C92080E02
:104DE800046E7A0EE82EFED7042EFCD795821200A8
:104DF800C58AC5889EA603EF27F005EF27F0FEEFCA
:104E080026F09E961200C59AC5889EA60EEF27F03A
:104E180010EF27F009EF27F09E961200BA94BA50C7
:104E2800FC0B0209BA6E870EBA16000EBC6E120091
:104E3800D08EF198F092F09EF088BAEC26F0F28EBF
:104E4800F28C1200C5829EA62CEF27F02EEF27F0D9
:104E580027EF27F09E961200C5849EA636EF27F00E
:104E680038EF27F031EF27F09E961200C5809EA6F6
:104E780040EF27F042EF27F03BEF27F09E96120015
:104E8800010E01012E27000E2F233023312312009B
:104E9800286E756C6C29000303080308D386D28832
:104EA800FC0ED316D38E1200CF68DE0ECE6E72ECD7
:104EB80027F01200056E055074EC26F01200000E63
:104EC8000001DE6F1200010E0001DE6F120000010A
:104ED800DE511200BA941200BA8412009E90120099
:014EE80008C1
:107C6000000E0A0E00000000000D0A0D0A416C61B2
:107C7000726D73233A20483A25303275204D3A25EB
:107C800030327520533A2530327520433A25303250
:107C9000752C2573203B2054483A253033692C2518
:107CA0007320544C3A253033692C257320544852A4
:107CB000533A253033750D0A000D0A0D0A54696DCB
:107CC00065233A20253032752F253032752F32301A
:107CD00025303275202530327520253032753A2511
:107CE0003032753A253032750D0A004572726F7266
:107CF000202D3E204E6F6D627265206465206C61A0
:107D0000205461726561206D7579206772616E64BF
:107D1000650D0A000D0A4572726F7220656E20654E
:107D20006C2062757320312D576972652021212CDA
:107D300020726561736F6E20313232000D0A457218
:107D4000726F7220656E20656C2062757320312D14
:107D5000576972652021212C20726561736F6E2036
:107D6000313333000D0A4572726F7220656E2065E3
:107D70006C2042757320493243202C207265617358
:107D80006F6E203736332121000D0A4572726F72F3
:107D900020656E20656C2062757320493243202176
:107DA000212C20726561736F6E20373935000D0A02
:107DB0004572726F7220656E20656C20627573204B
:107DC0004932432021212C20726561736F6E203768
:107DD0003238000D0A4572726F7220656E20656C34
:107DE0002062757320312D576972652C2072656190
:107DF000736F6E20323738000D0A4572726F722031
:107E0000656E20656C204275732049324320212124
:107E10002C20726561736F6E20323938000D0A456F
:107E200072726F7220656E20656C206275732049D6
:107E300032432021212C20726561736F6E2031380E
:107E400034000D0A4572726F7220656E20656C20D9
:107E5000627573204932432C20726561736F6E3AEC
:107E600020313439000D0A54656D70202873747206
:107E7000293A202573B043202C2028696E742923C9
:107E80003A202569B04300446174653A20253032B8
:107E9000752F253032752F32302530327500546100
:107EA0007265612063726561646120233A202564F4
:107EB0000D0A0D0A00483A25303275204D3A25301A
:107EC000327520533A2530327500253032753A2507
:107ED0003032753A25303275202573002054454DD7
:107EE0005020414C41524D205B20435D0054454D94
:107EF00050204F6666736574205B20435D002054FC
:107F0000483A2530336920544C3A253033690044CF
:107F100053313842323020524F4D20436F64650058
:107F2000436C6F636B2026262043616C656E647220
:107F300000437265616E646F2054617265610D0A61
:107F400000202057454C434F4D4520544F202020C2
:107F5000002020557064617465204F4B2121002062
:107F60002020414C4C20414C41524D53002054495B
:107F70004D4520436164656E636500202054494D82
:107F80004520414C41524D00544852533A2530331C
:107F900075004D696E3A25303275005461736B205F
:107FA00031005461736B2032005461736B203300D5
:107FB0005461736B2034005461736B20350054613D
:107FC000736B2036005461736B2037005461736B00
:107FD00020380025752E257500256C6C780A006CFC
:107FE0006C58006C6C64006C6C69006C6C75006C97
:0F7FF0006C78002D2573004F4646004F4E000061
:020000040020DA
:08000000FFFFFFFFFFFFFFFF00
:020000040030CA
:0E00000023225E3CFFC385FF0FC00FE00F40C0
:00000001FF
