:020000040000FA
:0400000034EF00F0E9
:060008005C8254EF26F0BB
:100018005C80D8CF01F0E8CF02F0E0CF03F0A3A4D2
:1000280018EF00F01AEF00F01BEF00F0A450F0A852
:1000380020EF00F022EF00F02CEF00F0F0A227EF05
:1000480000F029EF00F02CEF00F0F0926DEC27F0B3
:1000580003C0E0FF02C0E8FF01C0D8FF5C901000B9
:100068004EEF21F049C0D9FF4AC0DAFFDECFF6FFD4
:10007800DDCFF7FF0800F550250AD8A446EF00F0B9
:1000880048EF00F01CEF04F049C0D9FF4AC0DAFF7E
:10009800DE2A000EDD22000E0001D96F000ED86F97
:1000A800D8C0DCF0D9C0DDF0DA69DB69000E636F17
:1000B800000E626FA6EF00F0DC8149C0D9FF4AC08C
:1000C800DAFFDE2A000EDD22A6EF00F0DC8361EF06
:1000D80000F0DC8561EF00F0DC8761EF00F0DC897F
:1000E80061EF00F0000E636F010E626FA6EF00F083
:1000F80049C0D9FF4AC0DAFFDECFF6FFDDCFF7FFF0
:100108000800F5504D6E4E6A4E50000AD8B48FEF75
:1001180000F076EF00F04D50200AD8B470EF00F0F0
:10012800030AD8B473EF00F0080AD8B46DEF00F0F2
:10013800060AD8B460EF00F01D0AD8B46AEF00F0E0
:1001480076EF00F062516311D8B4ADEF00F0AFEF75
:1001580000F07CEF00F0DCA1B4EF00F0B6EF00F0A7
:10016800B7EF00F0DC9349C0D9FF4AC0DAFFDECF11
:10017800F6FFDDCFF7FF0800F5502A0AD8A4C7EF2D
:1001880000F0C9EF00F0F2EF00F049C0D9FF4AC013
:10019800DAFFDE2A000EDD224BC0D9FF4CC0DAFFA1
:1001A800DFCF4DF0020EDE26DFCF4EF0000EDD224F
:1001B8004DC0D9FF4EC0DAFFDECFD8F0DDCFD9F081
:1001C800D9BFEBEF00F0E9EF00F036EF01F0DC818A
:1001D800D86DD91FD8B0D92B36EF01F049C0D9FF57
:1001E8004AC0DAFFDECF0BF0DDCF0CF0DEEC12F008
:1001F8000BC0D8F00CC0D9F009EF01F049C0D9FF05
:100208004AC0DAFFDE2A000EDD22D00E4D6EFF0E48
:100218004E6E49C0D9FF4AC0DAFFDECFF6FFDDCF08
:10022800F7FF0800F5504F6E506A4D504F264E505C
:10023800502250500AE10A0E4F5CD8A026EF01F078
:1002480029EF01F0010E2AEF01F0000E0001646FA2
:10025800656B64516511D8A434EF01F036EF01F0F5
:1002680002EF01F049C0D9FF4AC0DAFFDECFF6FF3E
:10027800DDCFF7FF0800F550640AD8B446EF01F067
:1002880048EF01F05AEF01F049C0D9FF4AC0DAFF40
:10029800DECFF6FFDDCFF7FF0800F550690AD8A4D6
:1002A80058EF01F05AEF01F09AEF01F049C0D9FF79
:1002B8004AC0DAFFDE2A000EDD224BC0D9FF4CC04F
:1002C800DAFFDFCF4DF0020EDE26DFCF4EF0000E54
:1002D800DD224DC0D9FF4EC0DAFFDECF66F0DDCF9C
:1002E80067F0000E67BFFF0E686F696F6A6F6B6F0C
:1002F8006C6F6D6F47C020F048C021F066C022F0D7
:1003080067C023F068C024F069C025F06AC026F0F1
:100318006BC027F06CC028F06DC029F061EC0AF0C2
:1003280020C047F021C048F037EF04F049C0D9FF9A
:100338004AC0DAFFDECF04F0DDCF05F0E30E066E2B
:100348007F0E076E000E096E030E086EDDEC1AF0C4
:1003580004500510D8B4B3EF01F0B5EF01F0D0EFB9
:1003680001F049C0D9FF4AC0DAFFDECF04F0DDCF83
:1003780005F0E70E066E7F0E076E000E096E030E7F
:10038800086EDDEC1AF004500510D8A4CEEF01F089
:10039800D0EF01F00AEF02F0030E49C0D9FF4AC0BE
:1003A800DAFFDE26000EDD224BC0D9FF4CC0DAFF93
:1003B800DFCF4DF0080EDE26DFCF4EF0000EDD2237
:1003C8004DC0D9FF4EC0DAFFDECF4FF0DECF50F080
:1003D800DECF51F0DECF52F0DECF53F0DECF54F057
:1003E800DECF55F0DECF56F04FC066F050C067F054
:1003F80051C068F052C069F053C06AF054C06BF045
:1004080055C06CF056C06DF07EEF01F049C0D9FFC1
:100418004AC0DAFFDECFF6FFDDCFF7FF0800F55060
:10042800730AD8A41AEF02F01CEF02F047EF02F0AB
:1004380049C0D9FF4AC0DAFFDE2A000EDD224BC0D0
:10044800D9FF4CC0DAFFDFCF4DF0020EDE26DFCF3A
:100458004EF0000EDD224DC0D9FF4EC0DAFFDECFD0
:1004680060F0DDCF61F047C00EF048C00FF060C00B
:1004780010F061C011F010EC12F00EC047F00FC080
:1004880048F037EF04F049C0D9FF4AC0DAFFDECFA1
:10049800F6FFDDCFF7FF0800F550750AD8A457EF2F
:1004A80002F059EF02F09BEF02F049C0D9FF4AC0B1
:1004B800DAFFDE2A000EDD224BC0D9FF4CC0DAFF7E
:1004C800DFCF4DF0020EDE26DFCF4EF0000EDD222C
:1004D8004DC0D9FF4EC0DAFFDECF4FF0DDCF50F070
:1004E8004FC06FF050C070F00001716B726B736B8E
:1004F800746B756B766B47C020F048C021F06FC0F5
:1005080022F070C023F071C024F072C025F073C0CF
:1005180026F074C027F075C028F076C029F01DECCD
:1005280010F020C047F021C048F037EF04F049C070
:10053800D9FF4AC0DAFFDECF04F0DDCF05F0EB0EBD
:10054800066E7F0E076E000E096E030E086EDDEC58
:100558001AF004500510D8A4B4EF02F0B6EF02F078
:10056800F0EF02F0030E49C0D9FF4AC0DAFFDE26D9
:10057800000EDD224BC0D9FF4CC0DAFFDFCF4DF0B3
:10058800080EDE26DFCF4EF0000EDD224DC0D9FF6B
:100598004EC0DAFFDECF4FF0DECF50F0DECF51F0A5
:1005A800DECF52F0DECF53F0DECF54F0DECF55F081
:1005B800DECF56F04FC06FF050C070F051C071F0F0
:1005C80052C072F053C073F054C074F055C075F047
:1005D80056C076F07FEF02F049C0D9FF4AC0DAFF73
:1005E800DECFF6FFDDCFF7FF0800F550780AD8B464
:1005F80000EF03F002EF03F014EF03F049C0D9FF56
:100608004AC0DAFFDECFF6FFDDCFF7FF0800F5506E
:10061800580AD8A412EF03F014EF03F063EF03F0C5
:1006280049C0D9FF4AC0DAFFDECFF6FFDDCFF7FFBA
:100638000800F5CF6EF049C0D9FF4AC0DAFFDE2ABC
:10064800000EDD224BC0D9FF4CC0DAFFDFCF4DF0E2
:10065800020EDE26DFCF4EF0000EDD224DC0D9FFA0
:100668004EC0DAFFDECF4FF0DDCF50F04FC06FF055
:1006780050C070F00001716B726B736B746B756BAB
:10068800766B47C020F048C021F06FC022F070C0E0
:1006980023F071C024F072C025F073C026F074C036
:1006A80027F075C028F076C029F06EC02AF0B0ECAB
:1006B8000EF020C047F021C048F037EF04F049C0E1
:1006C800D9FF4AC0DAFFDECF04F0DDCF05F0EF0E28
:1006D800066E7F0E076E000E096E030E086EDDECC7
:1006E8001AF004500510D8B47CEF03F07EEF03F045
:1006F80099EF03F049C0D9FF4AC0DAFFDECF04F012
:10070800DDCF05F0DF0E066E7F0E076E000E096E58
:10071800030E086EDDEC1AF004500510D8A497EF0C
:1007280003F099EF03F0E6EF03F049C0D9FF4AC0A0
:10073800DAFFDECF4DF0DDCF4EF0020E4D26000E73
:100748004E224DC0F6FF4EC0F7FF0800F5CF6EF001
:10075800030E49C0D9FF4AC0DAFFDE26000EDD22AB
:100768004BC0D9FF4CC0DAFFDFCF4DF0080EDE26B4
:10077800DFCF4EF0000EDD224DC0D9FF4EC0DAFFAC
:10078800DECF4FF0DECF50F0DECF51F0DECF52F0AB
:10079800DECF53F0DECF54F0DECF55F0DECF56F08B
:1007A8004FC06FF050C070F051C071F052C072F07D
:1007B80053C073F054C074F055C075F056C076F04D
:1007C80045EF03F049C0D9FF4AC0DAFFDECFF6FF94
:1007D800DDCFF7FF0800F550250AD8A4F6EF03F09F
:1007E800F8EF03F00FEF04F049C0D9FF4AC0DAFF71
:1007F800DE2A000EDD22000E066E250E056E47C0AD
:1008080007F048C008F0B4EC1BF0000E486E010E6B
:10081800476E37EF04F049C0D9FF4AC0DAFFDE2A35
:10082800000EDD22000E486E000E476E37EF04F012
:1008380049C0D9FF4AC0DAFFDECFF6FFDDCFF7FFA8
:100848000800F550056E066A47C007F048C008F072
:10085800B4EC1BF049C0D9FF4AC0DAFFDE2A000E0B
:10086800DD2209EF04F0120083B43DEF04F03FEFFE
:1008780004F069EF05F00F0E0C6E000E0D6E000E01
:100888000E6E000E0F6E36EC23F05A2A050E5A64CF
:1008980050EF04F052EF04F054EF04F0000E5A6EDB
:1008A800000E0001E96F5FEF05F083B85EEF04F01A
:1008B80060EF04F0D6EF04F00F0E0C6E000E0D6E14
:1008C800000E0E6E000E0F6E36EC23F083A86FEF4D
:1008D80004F071EF04F06AEF04F0B4EF04F0EA2BCF
:1008E8003B0EEA657AEF04F07CEF04F0D6EF04F0F3
:1008F800000EEA6FD6EF04F0EB2B170EEB6587EFCF
:1009080004F089EF04F0D6EF04F0000EEB6FD6EF99
:1009180004F0EF2B1E0EEF6594EF04F096EF04F051
:10092800D6EF04F0000EEF6FD6EF04F0F02B0C0EAC
:10093800F065A1EF04F0A3EF04F0D6EF04F0000E89
:10094800F06FD6EF04F0F12B630EF165AEEF04F013
:10095800B0EF04F0D6EF04F0000EF16FD6EF04F01C
:100968005A500001916F926B9251000AD8B4BFEFB0
:1009780004F0D6EF04F09151010AD8B473EF04F0F3
:10098800030AD8B480EF04F0010AD8B48DEF04F05C
:10099800070AD8B49AEF04F0010AD8B4A7EF04F014
:1009A800D6EF04F083BADBEF04F0DDEF04F053EF89
:1009B80005F00F0E0C6E000E0D6E000E0E6E000E82
:1009C8000F6E36EC23F083AAECEF04F0EEEF04F0A0
:1009D800E7EF04F031EF05F0EA07F90EEA65F7EF03
:1009E80004F0F9EF04F053EF05F03B0EEA6F53EF14
:1009F80005F0EB07F90EEB6504EF05F006EF05F0DF
:100A080053EF05F0170EEB6F53EF05F0EF07F90EF4
:100A1800EF6511EF05F013EF05F053EF05F01F0E2A
:100A2800EF6F53EF05F0F007F90EF0651EEF05F0D4
:100A380020EF05F053EF05F00C0EF06F53EF05F0C3
:100A4800F107F90EF1652BEF05F02DEF05F053EFE7
:100A580005F0630EF16F53EF05F05A500001916FE6
:100A6800926B9251000AD8B43CEF05F053EF05F0B1
:100A78009151010AD8B4F0EF04F0030AD8B4FDEF9D
:100A880004F0010AD8B40AEF05F0070AD8B417EF42
:100A980005F0010AD8B424EF05F053EF05F0EEECA9
:100AA8001DF0320E0C6E000E0D6E000E0E6E000E56
:100AB8000F6E36EC23F083A464EF05F066EF05F0C3
:100AC80059EF04F0010E0001E16F83B66EEF05F0F7
:100AD80070EF05F02FEF07F00F0E0C6E000E0D6E85
:100AE800000E0E6E000E0F6E36EC23F0592ADFEC66
:100AF80026F01BEF07F083B884EF05F086EF05F0CA
:100B080022EF06F00F0E0C6E000E0D6E000E0E6E2C
:100B1800000E0F6E36EC23F083A895EF05F097EFE3
:100B280005F090EF05F0F8EF05F0F22B3B0EF265BB
:100B3800A0EF05F0A2EF05F022EF06F0000EF26F2D
:100B480022EF06F0F32B3B0EF365ADEF05F0AFEFA8
:100B580005F022EF06F0000EF36F22EF06F0F42BFB
:100B6800170EF465BAEF05F0BCEF05F022EF06F0BA
:100B7800000EF46F22EF06F0F52BF551800A4E0FA8
:100B8800D8A0C9EF05F0CBEF05F022EF06F0320E42
:100B9800F56F22EF06F0F62BF651800A760FD8A0F3
:100BA800D8EF05F0DAEF05F022EF06F00A0EF66F3F
:100BB80022EF06F0F72B040EF765E5EF05F0E7EFF7
:100BC80005F022EF06F0050EF76F22EF06F0F82B7E
:100BD800090EF865F2EF05F0F4EF05F022EF06F0E4
:100BE8000A0EF76F22EF06F059500001916F926BD1
:100BF8009251000AD8B403EF06F022EF06F09151A3
:100C0800010AD8B499EF05F0030AD8B4A6EF05F0A5
:100C1800010AD8B4B3EF05F0070AD8B4C0EF05F05D
:100C2800010AD8B4CFEF05F0030AD8B4DEEF05F017
:100C3800010AD8B4EBEF05F022EF06F083BA27EFEC
:100C480006F029EF06F0C3EF06F00F0E0C6E000E4B
:100C58000D6E000E0E6E000E0F6E36EC23F083AA9A
:100C680038EF06F03AEF06F033EF06F099EF06F0AA
:100C7800F207F90EF26543EF06F045EF06F0C3EF11
:100C880006F03B0EF26FC3EF06F0F307F90EF365BB
:100C980050EF06F052EF06F0C3EF06F03B0EF36F8D
:100CA800C3EF06F0F407F90EF4655DEF06F05FEFA9
:100CB80006F0C3EF06F0170EF46FC3EF06F0F50762
:100CC800F551800A750FD8B06CEF06F06EEF06F09C
:100CD800C3EF06F00A0EF56FC3EF06F0F607F551FD
:100CE800800A980FD8B07BEF06F07DEF06F0C3EFCF
:100CF80006F0E70EF56FC3EF06F0F707F90EF76594
:100D080088EF06F08AEF06F0C3EF06F0000EF76FE3
:100D1800C3EF06F0F807F90EF86595EF06F097EFC0
:100D280006F0C3EF06F08AEF06F059500001916F04
:100D3800926B9251000AD8B4A4EF06F0C3EF06F004
:100D48009151010AD8B43CEF06F0030AD8B449EF30
:100D580006F0010AD8B456EF06F0070AD8B463EFD4
:100D680006F0010AD8B472EF06F0030AD8B481EF8E
:100D780006F0010AD8B48EEF06F0C3EF06F0590466
:100D8800D8B4C9EF06F0CBEF06F0DDEF06F0020E9F
:100D98005918D8B4D2EF06F0D4EF06F0DDEF06F01C
:100DA800030E5918D8A4DBEF06F0DDEF06F0E1EFEB
:100DB80006F062EC23F011EF07F0040E5918D8B4CE
:100DC800E8EF06F0EAEF06F0F3EF06F0050E591823
:100DD800D8A4F1EF06F0F3EF06F0F7EF06F082EC97
:100DE80021F011EF07F0060E5918D8A4FEEF06F00F
:100DF80000EF07F004EF07F058EC24F011EF07F0CC
:100E0800070E5918D8A40BEF07F00DEF07F011EFF4
:100E180007F009EC23F011EF07F0320E0C6E000E0C
:100E28000D6E000E0E6E000E0F6E36EC23F083A6CC
:100E380020EF07F022EF07F07FEF05F0070E596467
:100E480028EF07F02AEF07F02FEF07F0000E596E92
:100E5800010E0001E06F120058EC27F0D0EC26F0EC
:100E680018EC27F0A0EC26F0970E0B6E010E0C6E16
:100E7800C3EC17F00009D8B444EF07F046EF07F0C9
:100E880050EF07F08C80140E00017D6F7D0E7E6F91
:100E980040EC26F04EEF07F0000E0101BD6F640E26
:100EA800BB6F070EBC6FBB0E0B6E010E0C6E74ECA5
:100EB8001FF00009D8B463EF07F065EF07F06FEF94
:100EC80007F08C803C0E00017D6F7D0E7E6F40EC3C
:100ED80026F06DEF07F0800E116E250E126E000ED3
:100EE800136E000E146EE9EC21F0A00E116E860E42
:100EF800126E010E136E000E146EACEC22F0000E92
:100F0800096E000E086E000E0B6E070E0A6EB40E08
:100F18000C6E010E0D6EA10EF3EC18F0E806D8A4C5
:100F280098EF07F09AEF07F0A4EF07F08C80420ED5
:100F380000017D6F7E0E7E6F40EC26F0A2EF07F079
:100F4800F20E046E000E056EB40E066E010E076EEC
:100F5800000E096E070E086E09EC24F03C0E000125
:100F6800F261B9EF07F0BBEF07F003EF08F03C0EB2
:100F7800F361C1EF07F0C3EF07F003EF08F0180EB5
:100F8800F461C9EF07F0CBEF07F003EF08F0F55174
:100F9800800AB60FD8A0D3EF07F0D5EF07F003EF1C
:100FA80008F0F551800A030FD8B0DDEF07F0DFEF46
:100FB80007F003EF08F0F651800AB60FD8A0E7EF64
:100FC80007F0E9EF07F003EF08F0F651800A030F86
:100FD800D8B0F1EF07F0F3EF07F003EF08F03C0E9D
:100FE800F761F9EF07F0FBEF07F003EF08F0640E85
:100FF800F86501EF08F003EF08F011EF08F0000EB4
:10100800F26F000EF36F000EF46F140EF56F050EFD
:10101800F66F010EF76F010EF86FFC0EFD17FD89D4
:10102800FD9FFD0E0F6E000E106EFBEC1FF0E80624
:10103800D8A421EF08F023EF08F02DEF08F08C80FA
:101048001D0E00017D6F7E0E7E6F40EC26F02BEFAB
:1010580008F08DEC23F0DFEC26F0610EF66E7C0EC6
:10106800F76E0800F5CF0CF0620EF66E7C0EF76E88
:101078000800F5CF0DF0630EF66E7C0EF76E0800D3
:10108800F5CF0EF0640EF66E7C0EF76E0800F5CF05
:101098000FF0650EF66E7C0EF76E0800F5CF10F0B7
:1010A800660EF66E7C0EF76E0800F5CF11F0670E2F
:1010B800F66E7C0EF76E0800F5CF12F0680EF66E2D
:1010C8007C0EF76E0800F5CF13F0010ED7EC08F090
:1010D800010E0C6E000E5CEC18F0410E0F6E7F0EC8
:1010E800106EB6EC21F0020E0C6E000E5CEC18F0DF
:1010F800200E0F6E7F0E106EB6EC21F03D0E000133
:10110800966FE10E956F3F0EE82EFED7952FFCD710
:10111800962FFAD700D0DFEC26F0010E0C6E000EE9
:101128005CEC18F00F0E0F6E7F0E106EB6EC21F00F
:10113800020E0C6E000E5CEC18F07B0E00017D6F49
:10114800010E7E6FD90E7F6F7F0E806F97C181F081
:1011580098C182F099C183F09AC184F09BC185F04F
:101168009CC186F09DC187F09EC188F0B7EC23F042
:101178007B0E0F6E010E106EB6EC21F03D0E0001D5
:10118800966FE10E956F3F0EE82EFED7952FFCD790
:10119800962FFAD700D0DFEC26F0010E64EC27F08A
:1011A80022EC27F01200166E47EF0AF0040E21EC2D
:1011B80025F0000E21EC25F05B805BC006F0400EA8
:1011C800E3EC24F00C380F0B176E0CC018F0175016
:1011D80021EC25F0185021EC25F00D380F0B176E77
:1011E8000DC018F0175021EC25F0185021EC25F00F
:1011F8000E380F0B176E0EC018F0175021EC25F0A3
:10120800185021EC25F00F380F0B176E0FC018F08F
:10121800175021EC25F0185021EC25F010380F0B51
:10122800176E10C018F0175021EC25F0185021EC5B
:1012380025F011380F0B176E11C018F0175021EC5C
:1012480025F0185021EC25F012380F0B176E12C03C
:1012580018F0175021EC25F0185021EC25F0133820
:101268000F0B176E13C018F0175021EC25F018500B
:1012780021EC25F05B905BC006F0400EE3EC24F017
:10128800000E21EC25F0010E21EC25F0070E156E5D
:10129800170E146E6A0EE82EFED7142EFCD7152EE4
:1012A800FAD700D060EF0AF0040E21EC25F0080E02
:1012B80021EC25F05B805BC006F0400EE3EC24F0E7
:1012C8000C380F0B176E0CC018F0175021EC25F0D6
:1012D800185021EC25F00D380F0B176E0DC018F0C3
:1012E800175021EC25F0185021EC25F00D380F0B84
:1012F800176E0DC018F0175021EC25F0185021EC8E
:1013080025F00E380F0B176E0EC018F0175021EC91
:1013180025F0185021EC25F00F380F0B176E0FC071
:1013280018F0175021EC25F0185021EC25F0103852
:101338000F0B176E10C018F0175021EC25F018503D
:1013480021EC25F011380F0B176E11C018F017504B
:1013580021EC25F0185021EC25F012380F0B176EF0
:1013680012C018F0175021EC25F0185021EC25F088
:1013780013380F0B176E13C018F0175021EC25F017
:10138800185021EC25F05B905BC006F0400EE3ECB2
:1013980024F0000E21EC25F0010E21EC25F04AEF97
:1013A80009F0040E21EC25F0FF0E21EC25F05B80FE
:1013B8005BC006F0400EE3EC24F00C380F0B176E00
:1013C8000CC018F0175021EC25F0185021EC25F02E
:1013D8000D380F0B176E0DC018F0175021EC25F0C3
:1013E800185021EC25F00E380F0B176E0EC018F0B0
:1013F800175021EC25F0185021EC25F00F380F0B71
:10140800176E0FC018F0175021EC25F0185021EC7A
:1014180025F010380F0B176E10C018F0175021EC7C
:1014280025F0185021EC25F011380F0B176E11C05C
:1014380018F0175021EC25F0185021EC25F012383F
:101448000F0B176E12C018F0175021EC25F018502A
:1014580021EC25F013380F0B176E13C018F0175036
:1014680021EC25F0185021EC25F05B905BC006F0CC
:10147800400EE3EC24F0000E21EC25F0010E21ECE7
:1014880025F04AEF09F01650146E156A1550000A37
:10149800D8B451EF0AF060EF0AF01450010AD8B43A
:1014A800DAEF08F0030AD8B458EF09F0010AD8B403
:1014B800D5EF09F060EF0AF0120022C03AF023C01D
:1014C8003BF024C03CF025C03DF026C03EF027C0CC
:1014D8003FF028C040F029C041F041BE76EF0AF045
:1014E80079EF0AF0010E7AEF0AF0000E386E396AC9
:1014F80038503910D8B483EF0AF085EF0AF095EF29
:101508000AF0411E401E3F1E3E1E3D1E3C1E3B1E55
:101518003A6C000E3B223C223D223E223F224022D2
:1015280041220001DBBF9BEF0AF09DEF0AF09EEF1E
:101538000AF0DC93DBBFABEF0AF0DB5106E1DA051A
:10154800D8B0A9EF0AF0ABEF0AF0B1EF0AF0000E3D
:10155800356E010E346EB5EF0AF0DAC034F0DBC038
:1015680035F0D8C036F0D9C037F038503910D8A483
:10157800C0EF0AF0C2EF0AF0C9EF0AF0DCA5C7EF26
:101588000AF0C9EF0AF0CCEF0AF03606D8A0370601
:10159800000E436E1F0E426E000E01016A6F51EF7E
:1015A8000BF04206D8A043064B0E4224D96E010E1A
:1015B8004320DA6E3AC004F03BC005F03CC006F0A8
:1015C8003DC007F03EC008F03FC009F040C00AF037
:1015D80041C00BF00A0E0C6E000E0D6E000E0E6E62
:1015E800000E0F6E000E106E000E116E000E126EC1
:1015F800000E136EDBEC15F004C02AF005C02BF0CA
:1016080006C02CF007C02DF008C02EF009C02FF03E
:101618000AC030F00BC031F02AC016F02CC017F009
:10162800C3EC24F01650300FDF6E3406D8A0350610
:101638003606D8A037063AC004F03BC005F03CC0D7
:1016480006F03DC007F03EC008F03FC009F040C0BA
:101658000AF041C00BF00A0E0C6E000E0D6E000E63
:101668000E6E000E0F6E000E106E000E116E000E44
:10167800126E000E136EA6EC13F004C03AF005C00B
:101688003BF006C03CF007C03DF008C03EF009C082
:101698003FF00AC040F00BC041F043BE5CEF0BF0D6
:1016A800435008E14204D8A05CEF0BF05EEF0BF06A
:1016B8008FEF0BF03A503B103C103D103E103F109E
:1016C80040104110D8A46BEF0BF06DEF0BF0D5EF85
:1016D8000AF035BE7AEF0BF0355006E13404D8B085
:1016E80078EF0BF07AEF0BF0D5EF0AF037BE85EF05
:1016F8000BF0375008E13604D8A085EF0BF087EFE0
:101708000BF08FEF0BF00001DCB38DEF0BF08FEFD8
:101718000BF0D5EF0AF038503910D8A496EF0BF03B
:1017280098EF0BF0A0EF0BF00001DCA59EEF0BF09B
:10173800A0EF0BF0BEEF0BF04206D8A043063850DE
:101748003910D8A4AAEF0BF0ACEF0BF0B2EF0BF006
:10175800000E336E2B0E326EB6EF0BF0000E336EAA
:101768002D0E326E4B0E4224D96E010E4320DA6ED6
:1017780032C0DFFF20C015F021C016F04B0E422406
:10178800176E010E4320186E36C019F037C01AF0D4
:1017980019EC1CF015C020F016C021F01200000E44
:1017A8000001D16F080ED06F000ED56F000ED46FF8
:1017B80078EF0CF0010ED425D26F000ED521D36F2F
:1017C80067EF0CF0D4C004F0D5C005F0000E076E2A
:1017D8001A0E066E68EC26F0020E0424D96E020E6C
:1017E8000520DA6ED2C004F0D3C005F0000E076EF3
:1017F8001A0E066E68EC26F0020E0424E16E020E44
:101808000520E26EDE50E65CDE50E658D8B00FEFF9
:101818000CF011EF0CF064EF0CF0D4C004F0D5C05C
:1018280005F0000E076E1A0E066E68EC26F0000E24
:101838000424D96E020E0520DA6E10EEB4F0190EEB
:10184800DBCFE3FFE806FCE2D2C004F0D3C005F02A
:10185800000E076E1A0E066E68EC26F0000E0424C1
:10186800D96E020E0520DA6ED4C004F0D5C005F09A
:10187800000E076E1A0E066E68EC26F0000E0424A1
:10188800E16E020E0520E26E190EDBCFE3FFE806DB
:10189800FCE220EEB4F0D2C004F0D3C005F0000E94
:1018A800076E1A0E066E68EC26F0000E0424E16E30
:1018B800020E0520E26E190EDBCFE3FFE806FCE21C
:1018C8000001D24BD32BD251D05DD151800AA86FE1
:1018D800D351800AA859D8B074EF0CF076EF0CF009
:1018E800E6EF0BF0D44BD52BD451D05DD151800A03
:1018F800A86FD551800AA859D8B085EF0CF087EFAA
:101908000CF0DEEF0BF0000E0001D76F000ED66F63
:10191800D6C004F0D7C005F0000E076E1A0E066E8A
:1019280068EC26F00C0E0424D96E020E0520DA6E3F
:10193800DE04DE10D8A4A3EF0CF0A5EF0CF030EF16
:101948000DF0D6C004F0D7C005F0000E076E1A0ED1
:10195800066E68EC26F0040E0424D96E020E0520EB
:10196800DA6EDECFA8F0DECFA9F0DECFAAF0DECFA8
:10197800ABF0D6C004F0D7C005F0000E076E1A0E03
:10198800066E68EC26F0080E0424D96E020E0520B7
:10199800DA6EDECFACF0DECFADF0DECFAEF0DECF6C
:1019A800AFF00001A851AC25B06FA951AD21B16FBE
:1019B800AA51AE21B26FAB51AF21B36F17EC26F02D
:1019C8000001B051045CB1510558B2510658B351E9
:1019D8000758D8A0F2EF0CF0F4EF0CF030EF0DF050
:1019E800D6C004F0D7C005F0000E076E1A0E066EBA
:1019F80068EC26F0080E0424D96E020E0520DA6E73
:101A080017EC26F004C0DEFF05C0DEFF06C0DEFFCF
:101A180007C0DEFFD6C004F0D7C005F0000E076E81
:101A28001A0E066E68EC26F00E0E0424D96E020E0D
:101A38000520DA6EDECFCEF0DDCFCFF002D830EF62
:101A48000DF005000001FA6ECE51FD6ECF51FE6E0D
:101A5800F850FF6EFA5012000001D64BD72BD75121
:101A680009E1090ED65DD8A03CEF0DF03EEF0DF070
:101A78008CEF0CF0030000F087EF0CF012000EC0A2
:101A8800D9FF0FC0DAFFDF50106E1050046E056AE0
:101A9800000E076E0A0E066E96EC1DF00CC0D9FFFC
:101AA8000DC0DAFFDF500418F00B0418DF6E0EC00B
:101AB800D9FF0FC0DAFFDF50106E1050046E056AB0
:101AC800000E076E0A0E066E7CEC1CF00CC0D9FFE7
:101AD8000DC0DAFF043ADF5004188F0B0418DF6ECC
:101AE80020EE01F00E50D9260F50DA22DF50106E8A
:101AF8001050046E056A000E076E0A0E066E96EC0C
:101B08001DF020EE01F00C50D9260D50DA22DF50DE
:101B18000418F00B0418DF6E20EE01F00E50D926E1
:101B28000F50DA22DF50106E1050046E056A000E56
:101B3800076E0A0E066E7CEC1CF020EE01F00C50CD
:101B4800D9260D50DA22043ADF5004188F0B0418F6
:101B5800DF6E20EE02F00E50D9260F50DA22DF5049
:101B6800106E1050046E056A000E076E0A0E066E9F
:101B780096EC1DF020EE02F00C50D9260D50DA221A
:101B8800DF500418F00B0418DF6E20EE02F00E5040
:101B9800D9260F50DA22DF50106E1050046E056AF5
:101BA800000E076E0A0E066E7CEC1CF020EE02F0AA
:101BB8000C50D9260D50DA22043ADF500418CF0B06
:101BC8000418DF6E20EE03F00E50D9260F50DA22EB
:101BD800DF50106E20EE02F00C50D9260D50DA229C
:101BE800103A10461046DF501018BF0B1018DF6E61
:101BF80020EE03F00C50D9260D50DA22070EDF1222
:101C080020EE06F00E50D9260F50DA22DF50106E63
:101C18001050046E056A000E076E0A0E066E96ECEA
:101C28001DF020EE04F00C50D9260D50DA22DF50BA
:101C38000418F00B0418DF6E20EE06F00E50D926BB
:101C48000F50DA22DF50106E1050046E056A000E35
:101C5800076E0A0E066E7CEC1CF020EE04F00C50A9
:101C6800D9260D50DA22043ADF500418CF0B041895
:101C7800DF6E20EE07F00E50D9260F50DA22DF5023
:101C8800106E1050046E056A000E076E0A0E066E7E
:101C980096EC1DF020EE05F00C50D9260D50DA22F6
:101CA800DF500418F00B0418DF6E20EE07F00E501A
:101CB800D9260F50DA22DF50106E1050046E056AD4
:101CC800000E076E0A0E066E7CEC1CF020EE05F086
:101CD8000C50D9260D50DA22043ADF500418EF0BC5
:101CE8000418DF6E20EE08F00E50D9260F50DA22C5
:101CF800DF50106E1050046E056A000E076E0A0E53
:101D0800066E96EC1DF020EE06F00C50D9260D500C
:101D1800DA22DF500418F00B0418DF6E20EE08F00A
:101D28000E50D9260F50DA22DF50106E1050046E74
:101D3800056A000E076E0A0E066E7CEC1CF020EE9B
:101D480006F00C50D9260D50DA22043ADF50041858
:101D58000F0B0418DF6E12000001DBBFB6EF0EF0A8
:101D6800B8EF0EF0B9EF0EF0DC93DBBFC6EF0EF064
:101D7800DB5106E1DA05D8B0C4EF0EF0C6EF0EF07D
:101D8800CCEF0EF0000E386E010E376ED0EF0EF06D
:101D9800DAC037F0DBC038F0D8C039F0D9C03AF033
:101DA800DCA9D9EF0EF0DBEF0EF0DFEF0EF0FE0E40
:101DB8003926FF0E3A2222C03BF023C03CF024C053
:101DC8003DF025C03EF026C03FF027C040F028C0B7
:101DD80041F029C042F0000E446E1F0E436E000E03
:101DE80001016A6FABEF0FF04306D8A044060F0E4F
:101DF8003B14456E466A46BE0BEF0FF0465009E1AC
:101E08000A0E455CD8A00BEF0FF00DEF0FF015EFA1
:101E18000FF0570E4524456E000E4620466E1BEF08
:101E28000FF0300E4524456E000E4620466EBF0E5C
:101E38002B6EFF0E2C6E2A502D6E2E6A2B502D26DF
:101E48002C502E222E500AE11A0E2D5CD8A02FEF0E
:101E58000FF032EF0FF0010E33EF0FF0000E336E7C
:101E6800346A33503410D8B43CEF0FF03EEF0FF023
:101E78006EEF0FF09F0E2B6EFF0E2C6E200E45108E
:101E88002D6E000E46102E6E2B502D262C502E2215
:101E98002E500AE11A0E2D5CD8A055EF0FF058EF1E
:101EA8000FF0010E59EF0FF0000E356E366A3550FF
:101EB8003610D8B462EF0FF064EF0FF06EEF0FF04A
:101EC80045C00AF046C00BF07DEC22F00AC045F090
:101ED8000BC046F04B0E4324D96E010E4420DA6E37
:101EE80045C0DFFF3706D8A038063906D8A03A061D
:101EF8003BC02BF03CC02CF03DC02DF03EC02EF076
:101F08003FC02FF040C030F041C031F042C032F045
:101F1800050E98EF0FF0D8903232313230322F322E
:101F28002E322D322C322B32E82E8FEF0FF02BC0B1
:101F38003BF02CC03CF02DC03DF02EC03EF02FC031
:101F48003FF030C040F031C041F032C042F044BEF2
:101F5800B7EF0FF0445009E1020E435CD8A0B7EF89
:101F68000FF0B9EF0FF0EAEF0FF03B503C103D10C7
:101F78003E103F10401041104210D8A4C6EF0FF099
:101F8800C8EF0FF0F8EF0EF038BED5EF0FF038506D
:101F980006E13704D8B0D3EF0FF0D5EF0FF0F8EF24
:101FA8000EF03ABEE0EF0FF03A5008E13904D8A03D
:101FB800E0EF0FF0E2EF0FF0EAEF0FF00001DCB313
:101FC800E8EF0FF0EAEF0FF0F8EF0EF00001DCA9F0
:101FD800F0EF0FF0F2EF0FF008EF10F04306D8A083
:101FE80044064B0E4324D96E010E4420DA6E2AC0F3
:101FF800DFFF4306D8A044064B0E4324D96E010EDA
:102008004420DA6E300EDF6E20C015F021C016F0C5
:102018004B0E4324176E010E4420186E39C019F078
:102028003AC01AF019EC1CF015C020F016C021F0C7
:1020380012000001DBBF23EF10F025EF10F026EFB0
:1020480010F0DC93DBBF33EF10F0DB5106E1DA056B
:10205800D8B031EF10F033EF10F039EF10F0000E78
:10206800336E010E326E3DEF10F0DAC032F0DBC095
:1020780033F0D8C034F0D9C035F022C036F023C0D0
:1020880037F024C038F025C039F026C03AF027C010
:102098003BF028C03CF029C03DF0000E3F6E1F0EFB
:1020A8003E6E000E01016A6FD0EF10F03E06D8A018
:1020B8003F064B0E3E24D96E010E3F20DA6E36C025
:1020C80004F037C005F038C006F039C007F03AC050
:1020D80008F03BC009F03CC00AF03DC00BF00A0E06
:1020E8000C6E000E0D6E000E0E6E000E0F6E000EC2
:1020F800106E000E116E000E126E000E136E4CEC78
:102108001BF004C02AF005C02BF006C02CF007C055
:102118002DF008C02EF009C02FF00AC030F00BC017
:1021280031F02A50300FDF6E3206D8A0330634065D
:10213800D8A0350636C004F037C005F038C006F020
:1021480039C007F03AC008F03BC009F03CC00AF0BB
:102158003DC00BF00A0E0C6E000E0D6E000E0E6EDA
:10216800000E0F6E000E106E000E116E000E126E35
:10217800000E136E65EC1AF004C036F005C037F097
:1021880006C038F007C039F008C03AF009C03BF083
:102198000AC03CF00BC03DF03E503F10D8B4D7EF1A
:1021A80010F0D9EF10F00AEF11F036503710381050
:1021B80039103A103B103C103D10D8A4E6EF10F04F
:1021C800E8EF10F05AEF10F033BEF5EF10F033508F
:1021D80006E13204D8B0F3EF10F0F5EF10F05AEF43
:1021E80010F035BE00EF11F0355008E13404D8A0E6
:1021F80000EF11F002EF11F00AEF11F00001DCB36B
:1022080008EF11F00AEF11F05AEF10F020C015F0A6
:1022180021C016F04B0E3E24176E010E3F20186E9B
:1022280034C019F035C01AF019EC1CF015C020F0B4
:1022380016C021F0120006C0D9FF07C0DAFFDF5030
:102248000F0B086E06C0D9FF07C0DAFFDF38070B8F
:102258000A0DF350082404C0D9FF05C0DAFFDF6E69
:1022680020EE01F00450D9260550DA2210EE01F0D4
:102278000650E1260750E222E7500F0B086E10EED9
:1022880001F00650E1260750E222E738070B0A0D55
:10229800F3500824DF6E20EE02F00650D9260750CE
:1022A800DA22DFAC5AEF11F05CEF11F08DEF11F08C
:1022B80020EE02F00450D9260550DA2210EE02F082
:1022C8000650E1260750E222E7500F0B086E10EE89
:1022D80002F00650E1260750E222E738030B010B13
:1022E8000A0DF3500824DF6E20EE04F00450D926BE
:1022F8000550DA2210EE02F00650E1260750E222DD
:10230800E738030B086ED8900830010BDF6EA8EF92
:1023180011F020EE02F00450D9260550DA2210EE12
:1023280002F00650E1260750E222E7500F0B086E34
:1023380010EE02F00650E1260750E222E738030BC0
:102348000A0DF3500824DF6E20EE05F00450D9265C
:102358000550DA2210EE03F00650E1260750E2227B
:10236800E750070BDF6E20EE06F00450D926055023
:10237800DA2210EE04F00650E1260750E222E75078
:102388000F0B086E10EE04F00650E1260750E2220B
:10239800E738030B0A0DF3500824DF6E20EE07F030
:1023A8000450D9260550DA2210EE05F00650E12631
:1023B8000750E222E7500F0B086E10EE05F00650AA
:1023C800E1260750E222E7B8ECEF11F0EFEF11F049
:1023D800010EF0EF11F0000E0A0DF3500824DF6E25
:1023E80020EE08F00450D9260550DA2210EE06F047
:1023F8000650E1260750E222E7500F0B086E10EE58
:1024080006F00650E1260750E222E7380F0B0A0DC6
:10241800F3500824DF6E120021EEBEF010EE13F028
:10242800060EDBCFE3FFE806FCE210C01EF011C089
:102438001FF01E501F10D8A424EF12F026EF12F040
:102448002AEF12F0130E1E6E000E1F6E1EC004F04F
:102458001FC005F031EC24F004C022F005C023F0C1
:10246800DAC020F0DBC021F021BE3DEF12F03FEFD3
:1024780012F054EF12F02250205C2150800A126EA4
:102488002350800A1258D8A04CEF12F04EEF12F0E9
:1024980050EF12F054EF12F020C022F021C023F0C8
:1024A80022C020F023C021F0D8C01CF0D9C01DF0F4
:1024B8000001DCB162EF12F064EF12F081EF12F06C
:1024C80072EF12F0000E066E200E056E0EC007F0B9
:1024D8000FC008F0B4EC1BF0224A232A1C50225CDF
:1024E8002350800A126E1D50800A1258D8A07FEF20
:1024F80012F081EF12F066EF12F0000E1B6E000E64
:102508001A6EA5EF12F01EC0F6FF1FC0F7FFF86A9B
:10251800070EF76403D00800F55005D0F6CFE1FFA9
:10252800F7CFE2FFE750126E1250056E066A0EC032
:1025380007F00FC008F0B4EC1BF01E4A1F2A1A4A15
:102548001B2A20501A5C1B50800A126E2150800AE8
:102558001258D8A0B2EF12F0B4EF12F087EF12F0D1
:102568000001DCA1BAEF12F0BCEF12F0D9EF12F0C3
:10257800CAEF12F0000E066E200E056E0EC007F0B0
:102588000FC008F0B4EC1BF0224A232A1C50225C2E
:102598002350800A126E1D50800A1258D8A0D7EF17
:1025A80012F0D9EF12F0BEEF12F022C00EF023C0E5
:1025B8000FF01200000E196E000E186E000E126E4B
:1025C800000E116EEAEF12F00B4A0C2A010E176E7C
:1025D8000BC0F6FF0CC0F7FF0800F550200AD8B46E
:1025E800F8EF12F0FAEF12F017EF13F0F70E0D6E86
:1025F800FF0E0E6E0BC0F6FF0CC0F7FF0800F5507B
:102608000F6E106A0D500F260E501022105009E15F
:10261800050E0F5CD8A013EF13F015EF13F017EFAA
:1026280013F0000E176E17C013F0146A135014102D
:10263800D8A421EF13F023EF13F0E8EF12F02DEFF9
:1026480013F0000E126E010E116E0B4A0C2A62EF87
:1026580013F00BC0F6FF0CC0F7FF0800F5500D6E25
:102668000E6A0E50000AD8B43CEF13F062EF13F074
:102678000D502B0AD8B429EF13F0060AD8B425EF69
:1026880013F062EF13F018C004F019C005F0000E43
:10269800076E0A0E066E68EC26F00BC0F6FF0CC03B
:1026A800F7FF0800F550045E000E055A300E0424AA
:1026B800186E000E0520196E29EF13F0D00E0D6E5E
:1026C800FF0E0E6E0BC0F6FF0CC0F7FF0800F550AA
:1026D8000F6E106A0D500F260E50102210500AE18E
:1026E8000A0E0F5CD8A07BEF13F07EEF13F0010EFB
:1026F8007FEF13F0000E156E166A15501610D8A449
:1027080088EF13F08AEF13F047EF13F0115012100F
:10271800D8A491EF13F093EF13F0A1EF13F018C0C2
:102728000DF019C00EF00D1E0E1E0D4A0E2A0DC01A
:102738000BF00EC00CF0A5EF13F018C00BF019C089
:102748000CF01200000E156E13BEAFEF13F0ADEFD4
:1027580013F0C1EF13F0131E121E111E101E0F1ED0
:102768000E1E0D1E0C6C000E0D220E220F221022C2
:10277800112212221322010E156E0BBEC8EF13F0A0
:10278800C6EF13F0DAEF13F00B1E0A1E091E081E1F
:10279800071E061E051E046C000E052206220722CF
:1027A800082209220A220B22010E151A20EE16F021
:1027B800070EDE6AE806FDE20C500D100E100F1031
:1027C8001010111012101310D8B4EDEF13F0EFEF32
:1027D80013F041EF14F0010E146EFDEF13F0D890D2
:1027E8000C360D360E360F361036113612361336B5
:1027F800142A13AE02EF14F004EF14F0F3EF13F001
:10280800D89016361736183619361A361B361C362F
:102818001D360C50045C0D5005580E5006580F50CC
:102828000758105008581150095812500A58135098
:102838000B58D8A022EF14F024EF14F035EF14F061
:102848000C50045E0D50055A0E50065A0F50075A88
:102858001050085A1150095A12500A5A13500B5A5C
:102868001680D89013321232113210320F320E32D3
:102878000D320C32142E04EF14F01550D8B447EF73
:1028880014F049EF14F059EF14F01D1E1C1E1B1E06
:102898001A1E191E181E171E166C000E1722182253
:1028A80019221A221B221C221D2216C004F017C04E
:1028B80005F018C006F019C007F01AC008F01BC0D0
:1028C80009F01CC00AF01DC00BF0120030EC07F034
:1028D8009B0E0001956F7F0E966F000E986F010E8C
:1028E800976FFA0E996F000E9A6F000E9B6F000E8D
:1028F8009C6F9A0E9D6F440E9E6F28EC15F0A20EE9
:102908000001956F7F0E966F000E986F020E976FFD
:10291800C80E996F000E9A6F000E9B6F000E9C6F89
:10292800700E9D6F3F0E9E6F28EC15F0A90E0001EA
:10293800956F7F0E966F000E986F030E976F0A0EB5
:10294800996F000E9A6F000E9B6F000E9C6FE60E3B
:102958009D6F320E9E6F28EC15F0B00E0001956F3A
:102968007F0E966F000E986F040E976FFA0E996F90
:10297800000E9A6F000E9B6F000E9C6F320E9D6FBB
:10298800420E9E6F28EC15F0B70E0001956F7F0E72
:10299800966F000E986F050E976F960E996F000E42
:1029A8009A6F000E9B6F000E9C6F700E9D6F080E45
:1029B8009E6F28EC15F0BE0E0001956F7F0E966F86
:1029C800000E986F060E976F640E996F000E9A6F3F
:1029D800000E9B6F000E9C6FFA0E9D6F480E9E6F47
:1029E80028EC15F0C50E0001956F7F0E966F000E4E
:1029F800986F070E976F640E996F000E9A6F000E0E
:102A08009B6F000E9C6F580E9D6F3E0E9E6F28ECBC
:102A180015F0CC0E0001956F7F0E966F000E986F23
:102A2800080E976F880E996F130E9A6F000E9B6FA2
:102A3800000E9C6F1A0E9D6F2D0E9E6F28EC15F0E0
:102A4800D3EC0BF034EF00F0010E0001A16F310E52
:102A58007D6F7F0E7E6F40EC26F0D1EF15F095C0AC
:102A680004F096C005F031EC24F0055009E10B0E96
:102A7800045CD8A042EF15F044EF15F04DEF15F0C7
:102A8800EB0E00017D6F7C0E7E6F40EC26F0DAEFD6
:102A980015F00001A1511A0D0C0EF324D96E020E87
:102AA800F420DA6EDE04DE10D8B45DEF15F05FEFC7
:102AB80015F0D0EF15F09E0E7D6F7E0E7E6FA1C0D3
:102AC8007FF0806B40EC26F00001A1519F6FA06B56
:102AD800A1511A0D000EF324D96E020EF420DA6EFD
:102AE8009FC0DEFFA0C0DDFFA1511A0D100EF32418
:102AF800046E020EF420056E95C006F096C007F02D
:102B0800DBEC22F00001A1511A0D020EF324D96E5C
:102B1800020EF420DA6E97C0DEFF98C0DDFFA151E7
:102B28001A0D040EF324D96E020EF420DA6E99C041
:102B3800DEFF9AC0DEFF9BC0DEFF9CC0DEFF17EC05
:102B480026F00001A1511A0D080EF324D96E020EC9
:102B5800F420DA6E04C0DEFF05C0DEFF06C0DEFF2B
:102B680007C0DEFFA1511A0D0E0EF324D96E020E16
:102B7800F420DA6E9DC0DEFF9EC0DDFFA1511A0D64
:102B88000C0EF324D96E020EF420DA6E010EDE6EFE
:102B9800000EDD6EDAEF15F0A12B080E0001A1651D
:102BA800D8EF15F0DAEF15F033EF15F01200000E3C
:102BB800156E0BBEE4EF15F0E2EF15F0F6EF15F029
:102BC8000B1E0A1E091E081E071E061E051E046C83
:102BD800000E052206220722082209220A220B22B9
:102BE800010E156E13BEFDEF15F0FBEF15F00DEF9E
:102BF80016F0131E121E111E101E0F1E0E1E0D1E85
:102C08000C6C000E0D220E220F221022112212220D
:102C180013220C500D100E100F101010111012105E
:102C28001310D8B41AEF16F01CEF16F064EF16F074
:102C3800010E146E2AEF16F0D8900C360D360E36AB
:102C48000F361036113612361336142A13AE2FEFFC
:102C580016F031EF16F020EF16F00C50045C0D5012
:102C680005580E5006580F50075810500858115064
:102C7800095812500A5813500B58D8A046EF16F0AE
:102C880048EF16F058EF16F00C50045E0D50055A38
:102C98000E50065A0F50075A1050085A1150095A28
:102CA80012500A5A13500B5AD8901332123211325A
:102CB80010320F320E320D320C32142E31EF16F064
:102CC8001550D8B46AEF16F06CEF16F07CEF16F0DA
:102CD8000B1E0A1E091E081E071E061E051E046C72
:102CE800000E052206220722082209220A220B22A8
:102CF80004C004F005C005F006C006F007C007F0E0
:102D080008C008F009C009F00AC00AF00BC00BF0AF
:102D180012000001DF05D8A494EF16F096EF16F024
:102D2800C7EF16F0000EDF6F000E096E000E086E7A
:102D3800000E0B6E070E0A6EB40E0C6E010E0D6EB1
:102D4800A10EF3EC18F0E806D8A4ADEF16F0AFEF3B
:102D580016F0B9EF16F08C80890E00017D6F7D0E9C
:102D68007E6F40EC26F0B7EF16F0F20E046E000E00
:102D7800056EB40E066E010E076E000E096E070E84
:102D8800086E09EC24F00001E251D8A4CEEF16F049
:102D9800D0EF16F0D6EF16F0F70E956F7F0E966F00
:102DA800DAEF16F0FB0E956F7F0E966FE351D8A4FD
:102DB800E0EF16F0E2EF16F0E8EF16F0F70E976F77
:102DC8007F0E986FECEF16F0FB0E976F7F0E986FE3
:102DD800E451D8A4F2EF16F0F4EF16F0FAEF16F07B
:102DE800F70E996F7F0E9A6FFEEF16F0FB0E996F34
:102DF8007F0E9A6F690E7D6F7C0E7E6FF4C07FF038
:102E0800806BF3C081F0826BF2C083F0846BF7C0F3
:102E180085F0866B99C087F09AC088F0F551896F64
:102E28008A6B89BF8A0797C08BF098C08CF0F651DF
:102E38008D6F8E6B8DBF8E0795C08FF096C090F00A
:102E4800F8C091F0926B40EC26F01200000E0001E1
:102E5800A76FF90E0B6E000E0C6E3BEC1DF000090F
:102E6800D8A439EF17F03BEF17F0C1EF17F00001C6
:102E7800FAAF41EF17F043EF17F049EF17F0010EE3
:102E8800A76FF96DFA1FD8B0FA2BF9C095F0FAC000
:102E980096F0040E976FD89096339533972F4FEF8F
:102EA80017F0955193C0D9FF94C0DAFFDF6E0F0E6B
:102EB800F915046E056A020E076E710E066E68EC4F
:102EC80026F004C00AF005C00BF0030E0D6EE80EE4
:102ED8000C6E37EC20F00AC0A5F00BC0A6F091C02C
:102EE8007DF092C07EF0D30E00017F6F7F0E806F61
:102EF800F9C095F0FAC096F0040E976FD890963303
:102F08009533972F82EF17F095C081F096C082F025
:102F1800A5C083F0A6C084F0B7EC23F00001A70594
:102F2800D8A499EF17F09BEF17F0BEEF17F0980EA3
:102F38007D6F000E7E6FF30E7F6F7F0E806F91C0E6
:102F480081F092C082F0B7EC23F091C004F092C0F7
:102F580005F0980E066E000E076EDBEC22F093C0AB
:102F6800D9FF94C0DAFFDF50000893C0D9FF94C09E
:102F7800DAFFDF6E000EC2EF17F0010E1200F7EC59
:102F880026F071EC20F00009D8A4CDEF17F0CFEFB0
:102F980017F05AEF18F0330EB1EC25F0AAEC20F038
:102FA8000D6E0D50176E186A196A1A6A1B6A1C6A28
:102FB8001D6A1E6A000E1F6E1F50080DF3CF0DF01C
:102FC800080E0D26AAEC20F00E6E0EC00FF0106A47
:102FD800116A126A136A146A156A166A0D2AFEEFD4
:102FE80017F0D8900F3610361136123613361436BD
:102FF800153616360D2EF5EF17F00F501712105024
:1030080018121150191212501A1213501B12145080
:103018001C1215501D1216501E121F2A050E1F6471
:1030280018EF18F01AEF18F0E0EF17F0AAEC20F0FC
:103038000D6E0DC00EF00F6A106A116A126A136ADB
:10304800146A156A380ED8900E360F3610361136B7
:103058001236133614361536E82E27EF18F00E50B0
:1030680017120F5018121050191211501A1212502C
:103078001B1213501C1214501D1215501E120BC097
:10308800D9FF0CC0DAFF17C0DEFF18C0DEFF19C079
:10309800DEFF1AC0DEFF1BC0DEFF1CC0DEFF1DC046
:1030A800DEFF1EC0DEFF000E5BEF18F0010E1200FF
:1030B800126E5B905BC006F0400EE3EC24F0D5EF97
:1030C80018F01250800F106E12500D6E0E6A800E9E
:1030D8000D26000E0E22040E0F6E0E340E320D3227
:1030E8000F2E71EF18F00D50116E115021EC25F0D4
:1030F800105021EC25F0F2EF18F01250C00F106EAE
:1031080012500D6E0E6AC00E0D26000E0E22040E11
:103118000F6E0E340E320D320F2E8DEF18F00D504B
:10312800116E115021EC25F0105021EC25F0F2EF32
:1031380018F01250940F106E12500D6E0E6A940E05
:103148000D26000E0E22040E0F6E0E340E320D32B6
:103158000F2EA9EF18F00D50116E115021EC25F02B
:10316800105021EC25F0F2EF18F01250D40F106E29
:1031780012500D6E0E6AD40E0D26000E0E22040E8D
:103188000F6E0E340E320D320F2EC5EF18F00D50A3
:10319800116E115021EC25F0105021EC25F0F2EFC2
:1031A80018F00C500D6E0E6A0E50000AD8B4DFEFFE
:1031B80018F0F2EF18F00D50010AD8B465EF18F0C6
:1031C800030AD8B481EF18F0010AD8B49DEF18F0BB
:1031D800070AD8B4B9EF18F0F2EF18F01200126E1F
:1031E800100E095CD8A0FBEF18F0FDEF18F000EF07
:1031F80019F0010E72EF19F040EC27F01204E8EC18
:1032080025F0E806D8A40BEF19F00DEF19F00FEF31
:1032180019F0FDEF18F008C006F009C007F03FEC00
:1032280025F0E806D8A41BEF19F01DEF19F01FEFE1
:1032380019F0FDEF18F02CEC27F01250E8EC25F00F
:10324800E806D8A42AEF19F02CEF19F02EEF19F0A0
:10325800FDEF18F0000E146E000E136E64EF19F0F7
:10326800FF0E0E6EFF0E0F6E0AC010F00BC011F0AD
:103278000E5010260F5011221350101807E1145049
:103288001118D8A44AEF19F04CEF19F058EF19F0BB
:10329800000ECDEC25F00CC0D9FF0DC0DAFFDF6EB3
:1032A8000C4A0D2A6FEF19F0010ECDEC25F00CC079
:1032B800D9FF0DC0DAFFDF6E0C4A0D2A134A142A13
:1032C8000A50135C0B501458D8A06DEF19F06FEF2B
:1032D80019F034EF19F036EC27F0000E1200000157
:1032E800EB51F419D8A47BEF19F07DEF19F0A3EF97
:1032F80019F0EA51F319D8A484EF19F086EF19F000
:10330800A3EF19F0F351EAC004F0056A045E000E59
:10331800055AF751066E076A0450065C0750800A82
:10332800086E0550800A0858D8A09DEF19F09FEF45
:1033380019F0A3EF19F0010EE46FA5EF19F0000ED4
:10334800E46FF851F5C004F0056A04BE0506045E92
:10335800000E055AFCC006F0076A06BE07060450B0
:10336800065C0750800A086E0550800A0858D8A0E5
:10337800C0EF19F0C2EF19F0C6EF19F0010EE36FB4
:10338800C8EF19F0000EE36FFCC004F0056A04BE34
:103398000506F851F6C006F0076A06BE07060626B7
:1033A800000E07220450065C0750800A086E05507C
:1033B800800A0858D8A0E3EF19F0E5EF19F0E9EF13
:1033C80019F0010EE26FEBEF19F0000EE26F120038
:1033D80040EC27F0D00EE8EC25F0E806D8A4F7EF8B
:1033E80019F0F9EF19F0FCEF19F0010E64EF1AF07B
:1033F800000EE8EC25F0E806D8A405EF1AF007EF70
:103408001AF009EF1AF0F9EF19F02CEC27F0D10EA9
:10341800E8EC25F0E806D8A414EF1AF016EF1AF035
:1034280018EF1AF0F9EF19F0000E126E000E116E77
:10343800060E11181210D8A424EF1AF026EF1AF06D
:1034480032EF1AF09F0E1124D96E010E1220DA6E97
:10345800000ECDEC25F0DF6E49EF1AF09F0E112417
:10346800D96E010E1220DA6E010ECDEC25F0DF6E5A
:10347800114A122A125009E1070E115CD8A047EF31
:103488001AF049EF1AF01CEF1AF036EC27F0A60EE6
:10349800046E010E056E9F0E066E010E076E000E7D
:1034A800096E070E086E09EC24F00FC004F010C076
:1034B80005F0A60E066E010E076E1FEC11F0000E49
:1034C800120020EE14F0070EDE6AE806FDE20C504A
:1034D8000D100E100F101010111012101310D8B478
:1034E80078EF1AF07AEF1AF0CCEF1AF0010E1C6E92
:1034F80088EF1AF0D8900C360D360E360F36103687
:103508001136123613361C2A13AE8DEF1AF08FEFD0
:103518001AF07EEF1AF0D89014361536163617368C
:10352800183619361A361B360C50045C0D500558DF
:103538000E5006580F500758105008581150095887
:1035480012500A5813500B58D8A0ADEF1AF0AFEF2D
:103558001AF0C0EF1AF00C50045E0D50055A0E50C8
:10356800065A0F50075A1050085A1150095A12504B
:103578000A5A13500B5A1480D8901332123211324F
:1035880010320F320E320D320C321C2E8FEF1AF021
:1035980014C004F015C005F016C006F017C007F0F7
:1035A80018C008F019C009F01AC00AF01BC00BF0C7
:1035B800120004C00BF005C00CF006C00DF007C0E7
:1035C8000EF00806D8A00906082806E10928D8A49C
:1035D800F0EF1AF0F2EF1AF0FFEF1AF0000E056E96
:1035E800000E046E4BEF1BF00B4A0C2A0D4A0E2AF4
:1035F8000806D8A009060BC0F6FF0CC0F7FF0800A4
:10360800F5500009D8B40BEF1BF00DEF1BF039EFA4
:103618001BF00DC0F6FF0EC0F7FF0800F5500009BB
:10362800D8B419EF1BF01BEF1BF039EF1BF0085053
:103638000910D8B422EF1BF024EF1BF039EF1BF070
:103648000BC0F6FF0CC0F7FF0800F5CF0AF00DC05D
:10365800F6FF0EC0F7FF0800F5500A18D8B437EF88
:103668001BF039EF1BF0F8EF1AF00BC0F6FF0CC097
:10367800F7FF0800F5CF0AF00DC0F6FF0EC0F7FF00
:103688000800F5500A5C046E056AD8A00506120009
:103698000C500D100E100F101010111012101310E6
:1036A800D8B459EF1BF05BEF1BF0A3EF1BF0010E32
:1036B800146E69EF1BF0D8900C360D360E360F36A7
:1036C8001036113612361336142A13AE6EEF1BF06D
:1036D80070EF1BF05FEF1BF00C50045C0D500558A9
:1036E8000E5006580F5007581050085811500958D6
:1036F80012500A5813500B58D8A085EF1BF087EFCB
:103708001BF097EF1BF00C50045E0D50055A0E503D
:10371800065A0F50075A1050085A1150095A125099
:103728000A5A13500B5AD8901332123211321032EF
:103738000F320E320D320C32142E70EF1BF004C013
:1037480004F005C005F006C006F007C007F008C081
:1037580008F009C009F00AC00AF00BC00BF012000B
:1037680007500810D8B4BBEF1BF0BDEF1BF0C6EF35
:103778001BF007500810D8A4C4EF1BF0C6EF1BF0CD
:10378800CBEF1BF00550ECEC26F018EF1CF020EE08
:1037980004F00750D9260850DA22DE50DE10D8B4DB
:1037A800D8EF1BF0DAEF1BF0F5EF1BF020EE04F07A
:1037B8000750D9260850DA2210EE02F00750E12609
:1037C8000850E222DE50E65CE650800A0D6EDE50BC
:1037D800800A0D58D8B0F3EF1BF0F5EF1BF018EF87
:1037E8001CF020EE02F00750D9260850DA22DECF6E
:1037F80009F0DDCF0AF007C0D9FF08C0DAFFDECF35
:103808000BF0DDCF0CF009500B24D96E0A500C20B8
:10381800DA6E05C0DFFF20EE02F00750D926085007
:10382800DA22DE2A000EDD2212000001DCA11FEFE1
:103838001CF021EF1CF02BEF1CF017C00EF018C085
:103848000FF015C010F016C011F0A1EC24F01ABE4C
:1038580030EF1CF032EF1CF038EF1CF019C01EF0EE
:103868001AC01FF03CEF1CF0000E1F6E000E1E6EFB
:10387800000E1D6E000E1C6E4EEF1CF0000E066E44
:10388800200E056E15C007F016C008F0B4EC1BF04A
:103898001C4A1D2A1E501C5C1D50800A1B6E1F509E
:1038A800800A1B58D8A05BEF1CF05DEF1CF042EFBC
:1038B8001CF00001DCB163EF1CF065EF1CF06FEF4A
:1038C8001CF017C00EF018C00FF015C010F016C08D
:1038D80011F0A1EC24F017C004F018C005F031EC89
:1038E80024F01E500424156E1F500520166E120079
:1038F800000E096E07BE85EF1CF083EF1CF08BEFFE
:103908001CF0066C071ED8B0072A010E096E05BE0A
:1039180092EF1CF090EF1CF098EF1CF0046C051E61
:10392800D8B0052A010E091A000E0B6E000E0A6E99
:1039380006500710D8B4A3EF1CF0A5EF1CF0CDEF8C
:103948001CF0010E086EADEF1CF0D8900636073655
:10395800082A07AEB2EF1CF0B4EF1CF0A9EF1CF078
:10396800D8900A360B360650045C07500558D8A084
:10397800C0EF1CF0C2EF1CF0C7EF1CF00650045E4D
:103988000750055A0A80D89007320632082EB4EF3D
:103998001CF00950D8B4D3EF1CF0D5EF1CF0D9EFC8
:1039A8001CF00A6C0B1ED8B00B2A0AC004F00BC01E
:1039B80005F01200A60E0C6E010E0D6E11C00EF071
:1039C80012C00FF043EC0DF09F0E046E010E056E51
:1039D800A60E066E010E076E000E096E070E086E23
:1039E80009EC24F040EC27F0D00EE8EC25F0E806CE
:1039F800D8A401EF1DF003EF1DF006EF1DF0010E36
:103A08003AEF1DF0000EE8EC25F0E806D8A40FEF19
:103A18001DF011EF1DF013EF1DF003EF1DF0000E68
:103A2800146E000E136E9F0E1324D96E010E14200F
:103A3800DA6EDF50E8EC25F0E806D8A426EF1DF092
:103A480028EF1DF02AEF1DF003EF1DF0134A142A8A
:103A5800145009E1070E135CD8A035EF1DF037EFBD
:103A68001DF017EF1DF036EC27F0000E12000BC00A
:103A7800D9FF0CC0DAFF000EDE6E000EDD6EF7EC2B
:103A880026F071EC20F00009D8A44DEF1DF04FEF9F
:103A98001DF092EF1DF0CC0EB1EC25F0440EB1EC08
:103AA80025F0AAEC20F00009D8B45DEF1DF05FEF17
:103AB8001DF055EF1DF0F7EC26F071EC20F0000931
:103AC800D8A469EF1DF06BEF1DF092EF1DF0CC0E3E
:103AD800B1EC25F0BE0EB1EC25F0AAEC20F00D6E8D
:103AE8000E6A0BC0D9FF0CC0DAFF0DC0DEFF0EC096
:103AF800DDFFAAEC20F00D6E0D500F6E0E6A0BC0A4
:103B0800D9FF0CC0DAFF0E50DE120F50DD12F7ECB1
:103B180026F074EC27F0000E95EF1DF074EC27F0FA
:103B2800010E1200000E096E05BE9FEF1DF09DEFFD
:103B38001DF0A5EF1DF0046C051ED8B0052A010E76
:103B4800096E07BEACEF1DF0AAEF1DF0B0EF1DF037
:103B5800066C071ED8B0072A06500710D8B4B7EF6E
:103B68001DF0B9EF1DF0DDEF1DF0010E086EC1EF7D
:103B78001DF0D89006360736082A07AEC6EF1DF0A6
:103B8800C8EF1DF0BDEF1DF00650045C0750055846
:103B9800D8A0D1EF1DF0D3EF1DF0D7EF1DF00650E0
:103BA800045E0750055AD89007320632082EC8EF2F
:103BB8001DF00950D8B4E3EF1DF0E5EF1DF0E9EF73
:103BC8001DF0046C051ED8B0052A04C004F005C019
:103BD80005F012006B0E00017D6F010E7E6FCA0E9C
:103BE8007F6F7E0E806FEBC081F0826BEAC083F03E
:103BF800846BE9C085F0866B8B0E876F010E886F2A
:103C0800B7EC23F0010E0C6E000E5CEC18F06B0E96
:103C18000F6E010E106EB6EC21F0010E0C6E0E0E3A
:103C28005CEC18F0010E2CEC26F0010E0C6E0F0E59
:103C38005CEC18F0430E7BEC26F06B0E00017D6FF8
:103C4800010E7E6F870E7F6F7E0E806FEFC081F052
:103C5800826BF0C083F0846BF1C085F0866BB7ECA3
:103C680023F0020E0C6E000E5CEC18F06B0E0F6E5B
:103C7800010E106EB6EC21F01200000E0C6E000E54
:103C88000D6E000E0E6E000E0F6E085009100A1011
:103C98000B10D8B452EF1EF054EF1EF08AEF1EF04E
:103CA800010E106E5EEF1EF0D890083609360A36FF
:103CB8000B36102A0BAE63EF1EF065EF1EF058EFBF
:103CC8001EF0D8900C360D360E360F360850045CB0
:103CD800095005580A5006580B500758D8A077EFD6
:103CE8001EF079EF1EF082EF1EF00850045E0950B6
:103CF800055A0A50065A0B50075A0C80D8900B32B6
:103D08000A3209320832102E65EF1EF00CC004F09A
:103D18000DC005F00EC006F00FC007F012000D6EC2
:103D2800080E106E0AC00EF00BC00FF040EC27F022
:103D38000D50E8EC25F0E806D8A4A5EF1EF0A7EF93
:103D48001EF0AAEF1EF0010EE1EF1EF008C006F00B
:103D580009C007F03FEC25F0E806D8A4B6EF1EF03E
:103D6800B8EF1EF0CEEF1EF0A7EF1EF00EC0D9FF81
:103D78000FC0DAFF0E4A0F2ADF50E8EC25F0E806FC
:103D8800D8A4C9EF1EF0CBEF1EF0CDEF1EF0A7EFC1
:103D98001EF010061050D8A4D4EF1EF0D6EF1EF077
:103DA800BAEF1EF036EC27F04E0E0C6EEB0EE82E36
:103DB800FED70C2EFCD700F0000E1200066E95926E
:103DC8008C9215EF1FF0000EBC6E2D0EBC64EFEF49
:103DD8001EF0F1EF1EF0E9EF1EF09582000EBC6EAA
:103DE800010EBC64FAEF1EF0FCEF1EF0F4EF1EF0BB
:103DF8002BEF1FF0000EBC6E010EBC6406EF1FF027
:103E080008EF1FF000EF1FF09582000EBC6E2C0E1D
:103E1800BC6411EF1FF013EF1FF00BEF1FF02BEF37
:103E28001FF00650010B046E056A0550000AD8B44D
:103E380020EF1FF02BEF1FF00450000AD8B4E7EF73
:103E48001EF0010AD8B4FEEF1EF02BEF1FF012008F
:103E58000001E005D8A433EF1FF035EF1FF073EF32
:103E68001FF0000EE06FAD0E046E010E056EF20E2F
:103E7800066E000E076E000E096E070E086E09EC3E
:103E880024F0000E096E000E086EAD0E0A6E010ECB
:103E98000B6EA00E93EC1EF0E806D8A456EF1FF0A8
:103EA80058EF1FF062EF1FF08C80640E00017D6FE9
:103EB8007D0E7E6F40EC26F060EF1FF0010E0001D2
:103EC800DF6F00EC26F0F40E0C6E010E0D6E000E86
:103ED8000E6E000E0F6E36EC23F0DFEC26F01200AB
:103EE800F7EC26F071EC20F00009D8A47EEF1FF063
:103EF80080EF1FF0B6EF1FF0CC0EB1EC25F04E0EA0
:103F0800B1EC25F00BC0D9FF0CC0DAFFDF50B1ECE3
:103F180025F020EE01F00B50D9260C50DA22DF50A4
:103F2800B1EC25F020EE02F00B50D9260C50DA2225
:103F3800DF500D6E050E0E6ED8900D360E2EA0EFCA
:103F48001FF00D50B1EC25F0F7EC26F020EE02F052
:103F58000B50D9260C50DA22DF500101C56F000E34
:103F6800B7EF1FF0010E120071EC27F0E806D8A495
:103F7800C0EF1FF0C2EF1FF0FAEF1FF069EC27F057
:103F8800E90E0F6E000E106EECEC19F0E806D8A4DE
:103F9800D0EF1FF0D2EF1FF0DCEF1FF08C80F80E8F
:103FA80000017D6F7D0E7E6F40EC26F0DAEF1FF08A
:103FB800B90E00017D6F7C0E7E6FEFC07FF0806BC5
:103FC800F0C081F0826BF1C083F0846BEEC085F0A5
:103FD800866BEBC087F0886BEAC089F08A6BE9C012
:103FE8008BF08C6B40EC26F0EEEC1DF01200FB0E13
:103FF800046E000E056E0FC006F010C007F0000E2C
:10400800096E010E086E09EC24F040EC27F0D00E82
:10401800E8EC25F0E806D8A414EF20F016EF20F01D
:1040280019EF20F0010E36EF20F0070EE8EC25F02E
:10403800E806D8A422EF20F024EF20F026EF20F0A5
:1040480016EF20F00001FB51E8EC25F0E806D8A4B3
:1040580030EF20F032EF20F034EF20F016EF20F0B0
:1040680036EC27F01200000E0F6E000E0E6E0C508C
:104078000D10D8B442EF20F044EF20F06CEF20F0A0
:10408800010E106E4CEF20F0D8900C360D36102A29
:104098000DAE51EF20F053EF20F048EF20F0D8900C
:1040A8000E360F360C500A5C0D500B58D8A05FEF37
:1040B80020F061EF20F066EF20F00C500A5E0D5002
:1040C8000B5A0E80D8900D320C32102E53EF20F080
:1040D8000EC00AF00FC00BF01200000EBC6E76EC9A
:1040E80027F083A27AEF20F07CEF20F084EF20F015
:1040F8002D0EBC6482EF20F084EF20F075EF20F0E5
:1041080083B289EF20F08BEF20F093EF20F0B80E08
:10411800BC6491EF20F093EF20F084EF20F0BA0E0A
:10412800BC6499EF20F09BEF20F09EEF20F0010E89
:10413800A9EF20F0000EBC6E8A0EBC64A6EF20F03A
:10414800A8EF20F0A0EF20F0000E1200000E076E7E
:10415800000E086EE2EC20F0E806D8A4B6EF20F0D6
:10416800B8EF20F0C8EF20F008C005F0010E066E89
:10417800052AC1EF20F0D8900636052EBFEF20F0B3
:1041880006500712D7EF20F008C005F0010E066EA2
:10419800052AD1EF20F0D8900636052ECFEF20F073
:1041A8000650FF0A0716082A070E0864DEEF20F0FB
:1041B800E0EF20F0AEEF20F00750120095928C92BD
:1041C800000EBC6E010EBC64ECEF20F0EEEF20F0A8
:1041D800E6EF20F09582000EBC6E090EBC64F7EF86
:1041E80020F0F9EF20F0F1EF20F083B2FEEF20F09D
:1041F80001EF21F0010E02EF21F0000E046E000E17
:10420800BC6E220EBC640BEF21F00DEF21F005EF20
:1042180021F0000EBC6E010EBC6415EF21F017EF03
:1042280021F00FEF21F0045012000001E405D8A49A
:1042380020EF21F022EF21F035EF21F08CBC27EFA1
:1042480021F02AEF21F0010E2BEF21F0000EFF0ADA
:10425800046E043A044604468C500418BF0B041834
:104268008C6EE305D8A43BEF21F03DEF21F040EF41
:1042780021F08C8E41EF21F08C9EE205D8A447EF07
:1042880021F049EF21F04CEF21F08B844DEF21F024
:104298008B941200A40EF66E4E0EF76E000EF86E9A
:1042A80001EEBEF010EE0CF00900F5CFEEFFE55080
:1042B800E150FAE1F40EF66E4E0EF76E000EF86E4F
:1042C8000900F5CF5BF002EE00F0D00EEE6AE806CA
:1042D800FDE101EE00F0BE0EEE6AE806FDE100EE3B
:1042E800D8F0260EEE6AE806FDE15A6A596A5C9033
:1042F8005C92000EF86E00016AEF14F06B0E00017C
:104308007D6F010E7E6FFE0E7F6F7E0E806FF55102
:10431800816F826B81BF8207F651836F846B83BF85
:104328008407B7EC23F0010E0C6E000E5CEC18F05D
:10433800DC0E0F6E7E0E106EB6EC21F0010E0C6EC8
:104348000D0E5CEC18F0010E2CEC26F0020E0C6E33
:10435800010E5CEC18F06B0E0F6E010E106EB6ECD1
:1043680021F012000FC011F010C012F0D0EF21F0B0
:1043780011C0F6FF12C0F7FFF86A070EF76403D002
:104388000800F55005D0F6CFE1FFF7CFE2FFE75080
:104398007BEC26F0114A122A11C0F6FF12C0F7FF73
:1043A800F86A070EF76403D00800F55005D0F6CF79
:1043B800E1FFF7CFE2FFE7500009D8A4E6EF21F0CC
:1043C800E8EF21F0BCEF21F012000F015D9D5D9F29
:1043D800949C948E080EB86E000E046E6C0E056EDA
:1043E800DC0E066E020E076E11C008F012C009F04E
:1043F80013C00AF014C00BF041EC1EF0030E0AEFD4
:1044080022F0D8900732063205320432E82E05EF42
:1044180022F0FF0E0424156EFF0E0520166E15C03F
:10442800AFFF1650B06E240EAC6E900EAB6E12003D
:1044380079C057F07AC058F0000E01013B6F000EAA
:104448003A6F3AEF22F077C047F078C048F0570E3D
:10445800496E000E4A6E7BC04BF07CC04CF036ECC7
:1044680000F0475001013A2748503B2357C0F6FF58
:1044780058C0F7FF0800F5500009D8A446EF22F00D
:1044880048EF22F027EF22F03AC177F03BC178F0ED
:1044980012008B0E0001916F010E926FFC0E936F4C
:1044A800000E946F2AEC17F00009D8A45EEF22F0F2
:1044B80060EF22F072EF22F0650E00017D6F7E0E34
:1044C8007E6F8B0E7F6F010E806FFC51816F826B48
:1044D80081BF820740EC26F07CEF22F08C80D30E5F
:1044E80000017D6F7D0E7E6F40EC26F07AEF22F0A2
:1044F80012009F0E0C6EFF0E0D6E0AC00EF00BC060
:104508000FF00C500E260D500F220F500AE11A0E14
:104518000E5CD8A092EF22F095EF22F0010E96EFF4
:1045280022F0000E106E116A10501110D8B49FEFCF
:1045380022F0A1EF22F0A7EF22F05F0E0A140A6E14
:104548000B6AABEF22F00AC00AF00BC00BF01200A6
:10455800C69A0F015C915C9393809382C78EC79C27
:10456800C650F00B0809C66E000E046E6C0E056E80
:10457800DC0E066E020E076E11C008F012C009F0BC
:1045880013C00AF014C00BF041EC1EF0030ED2EF7A
:1045980022F0D8900732063205320432E82ECDEFE9
:1045A80022F00404C86E000EC56EC68A120006C04A
:1045B8000AF007C00BF004C00CF005C00DF00A505B
:1045C800086E0B50096E0A4A0B2A08C0F6FF09C08C
:1045D800F7FFF86A0CC0D9FF0DC0DAFF0C4A0D2AA4
:1045E800070EF76403D00800F55005D0F6CFE1FFB9
:1045F800F7CFE2FFE750DF6EDF50D8A406EF23F0D5
:1046080008EF23F0E3EF22F012006B0E00017D6F3C
:10461800010E7E6F880E7F6F7F0E806FF8C081F06D
:10462800826BB7EC23F0010E0C6E000E5CEC18F0F8
:10463800ED0E0F6E7E0E106EB6EC21F0010E0C6EB4
:104648000D0E5CEC18F0010E2CEC26F0020E0C6E30
:10465800010E5CEC18F06B0E0F6E010E106EB6ECCE
:1046680021F0120017EC26F004C014F005C015F074
:1046780006C016F007C017F044EF23F0030000F05F
:1046880017EC26F01450045C106E15500558116E86
:1046980016500658126E17500758136E10500C5CBF
:1046A80011500D5812500E5813500F58D8B05FEFD4
:1046B80023F061EF23F042EF23F012006B0E0001AC
:1046C8007D6F010E7E6FB50E7F6F7E0E806FF4C01A
:1046D80081F0826BF3C083F0846BF2C085F0866B47
:1046E800B7EC23F0010E0C6E000E5CEC18F07B0E9C
:1046F8000F6E7F0E106EB6EC21F0020E0C6E010EDE
:104708005CEC18F06B0E0F6E010E106EB6EC21F01B
:1047180012005BC006F0400EE3EC24F0030E21EC1F
:1047280025F0030E21EC25F0030E21EC25F0020EF6
:1047380021EC25F0020E21EC25F0080E21EC25F0E5
:10474800000E21EC25F0080E21EC25F0000E21ECDE
:1047580025F0010E21EC25F0000E21EC25F00C0EC1
:1047680021EC25F01200810E0001896F000E8A6F7E
:104778007DC08BF07EC08CF0000E8E6F000E8D6FAA
:10478800000E906F000E8F6F8B0E776F000E786F94
:104798007FC079F080C07AF0890E7B6F000E7C6F45
:1047A8001CEC22F000018D517D25D96E8E517E21A1
:1047B800DA6E000EDF6E1200010E0A6E200E04186B
:1047C8000510D8B4EAEF23F0ECEF23F005EF24F05E
:1047D800F70E066EFF0E076E04C008F005C009F05C
:1047E8000650082607500922095009E1050E085C01
:1047F800D8A001EF24F003EF24F005EF24F0000E19
:104808000A6E0AC004F0056A120006C00CF007C060
:104818000DF004C00AF005C00BF023EF24F00CC023
:10482800D9FF0DC0DAFFDF500E6E0C4A0D2A0AC000
:10483800D9FF0BC0DAFF0EC0DFFF0A4A0B2A0806B1
:10484800D8A00906082806E10928D8A42EEF24F0E4
:1048580030EF24F013EF24F0120004C006F005C076
:1048680007F039EF24F0044A052A04C0F6FF05C012
:10487800F7FFF86A070EF76403D00800F55005D073
:10488800F6CFE1FFF7CFE2FFE7500009D8A44FEFDA
:1048980024F051EF24F037EF24F00650045C046E46
:1048A80007500558056E12006B0E00017D6F010E52
:1048B8007E6F920E7F6F7F0E806FF7C081F0826BE4
:1048C800B7EC23F0010E0C6E000E5CEC18F06D0EC8
:1048D8000F6E7F0E106EB6EC21F0020E0C6E010EFC
:1048E8005CEC18F06B0E0F6E010E106EB6EC21F03A
:1048F80012000001E105D8A484EF24F086EF24F02B
:10490800A0EF24F0000EE16FE90E116E000E126E9A
:10491800DEEC1CF0E806D8A494EF24F096EF24F01F
:10492800A0EF24F08C80AE0E00017D6F7D0E7E6FAF
:1049380040EC26F09EEF24F01200000E146E000EDC
:10494800136EB2EF24F012C005F0066A10C007F02B
:1049580011C008F0B4EC1BF0134A142A13500E24AB
:10496800D96E14500F20DA6EDF50126E1250D8A490
:10497800C0EF24F0C2EF24F0A7EF24F0120017BE16
:10498800D0EF24F0175006E11604D8B0CEEF24F08B
:10499800D0EF24F0DEEF24F016C018F017C019F09D
:1049A800181E191E184A192A18C016F019C017F02F
:1049B800E2EF24F016C016F017C017F01200076EC9
:1049C80040EC27F00750E8EC25F0E806D8A4EFEF14
:1049D80024F0F1EF24F0F3EF24F002EF25F0065075
:1049E800E8EC25F0E806D8A4FCEF24F0FEEF24F06C
:1049F80000EF25F002EF25F036EC27F012009F0EAD
:104A0800066EFF0E076E200E0410086E000E0510CD
:104A1800096E065008260750092209500AE11A0EA5
:104A2800085CD8A01AEF25F01DEF25F0010E1EEF47
:104A380025F0000E046E056A12000B6E5B945BC0D5
:104A480006F0400EE3EC24F05B845BC006F0400EF9
:104A5800E3EC24F00B50B0EC26F0200E0A6E2A0E80
:104A6800E82EFED70A2EFCD75B945BC006F0400EFA
:104A7800E3EC24F0120007500F0BE8EC25F0E806F1
:104A8800D8A449EF25F04BEF25F04EEF25F0010EA5
:104A98005CEF25F00650E8EC25F0E806D8A457EFBF
:104AA80025F059EF25F05BEF25F04BEF25F0000ED0
:104AB80012009F0E066EFF0E076E04C008F005C0B8
:104AC80009F0065008260750092209500AE11A0E73
:104AD800085CD8A072EF25F075EF25F0010E76EF8F
:104AE80025F0000E046E056A1200BF0E066EFF0E5A
:104AF800076E04C008F005C009F0065008260750E4
:104B0800092209500AE11A0E085CD8A08EEF25F098
:104B180091EF25F0010E92EF25F0000E046E056A64
:104B28001200D00E066EFF0E076E04C008F005C016
:104B380009F0065008260750092209500AE10A0E12
:104B4800085CD8A0AAEF25F0ADEF25F0010EAEEF76
:104B580025F0000E046E056A1200096E000E0A6E3A
:104B68000AC007F009C008F0072ABDEF25F0D89061
:104B78000832072EBBEF25F00850E2EC1EF00A2A97
:104B8800070E0A64CAEF25F0CCEF25F0B4EF25F044
:104B98001200046EC5869EA6D4EF25F0D6EF25F048
:104BA800CFEF25F09E96C7900404D8A4DEEF25F039
:104BB800E0EF25F0E4EF25F00DEC27F0E6EF25F027
:104BC80002EC27F0C9501200046E04C0C9FF9EA66B
:104BD800F0EF25F0F2EF25F0EBEF25F09E96C5BC3F
:104BE800F8EF25F0FBEF25F0010EFCEF25F0000EA5
:104BF800056EC59C05501200010E0C6E000E5CEC93
:104C080018F05F0E0F6E7F0E106EB6EC21F0020EDC
:104C18000C6E000E5CEC18F0510E0F6E7F0E106ECD
:104C2800B6EC21F01200F29EF29C2EC108F02FC1C2
:104C380009F030C10AF031C10BF0F28EF28C08C0D5
:104C480004F009C005F00AC006F00BC007F0120016
:104C58000C6E5B805BC006F0400EE3EC24F0000EA7
:104C680021EC25F00C0421EC25F05B905BC006F0EC
:104C7800400EE3EC24F012007F0E0001936F000E4B
:104C8800946F000E776F000E786F7DC079F07EC04C
:104C98007AF0930E7B6F000E7C6F1CEC22F01200F2
:104CA8009DA059EF26F05BEF26F066EF26F09EA058
:104CB80060EF26F062EF26F066EF26F05EEC27F054
:104CC8004AEC27F05C92110004500602F3CF08F07A
:104CD800F4CF09F004500702F350092605500602E4
:104CE800F350092608C004F009C005F012000E6E42
:104CF8000E380F0B0C6E0EC00DF05B805BC006F01B
:104D0800400EE3EC24F00C5021EC25F00D5021EC82
:104D180025F01200046E04C0E5F0CD90CD86CD508C
:104D28003F0B8009CD6ECF0ECD16CD94CF68DE0E29
:104D3800CE6ECD80CC9E12009582000EBC6E76ECB5
:104D480027F0010EBC64ABEF26F0ADEF26F0A5EF1F
:104D580026F074EC27F01200096E0F0E5B1609C0DE
:104D680008F00F0E08160838F00B5B125BC006F04F
:104D7800400EE3EC24F012009D809E900001E505B2
:104D8800D8A4C9EF26F0CBEF26F0CEEF26F09F800F
:104D9800CFEF26F09F90120094948B94000E0F0191
:104DA8005C6F9384000E5E6F3C0E95123E0E951656
:104DB8003E0E8C1612005B905BC006F0400EE3ECD2
:104DC80024F0000E21EC25F0010E21EC25F0120054
:104DD800046EACA2F2EF26F0F4EF26F0EDEF26F029
:104DE80004C0ADFF120095928C92080E046E7A0EE4
:104DF800E82EFED7042EFCD795821200C58AC588F6
:104E08009EA609EF27F00BEF27F004EF27F09E96F8
:104E18001200C59AC5889EA614EF27F016EF27F052
:104E28000FEF27F09E961200BA94BA50FC0B0209B5
:104E3800BA6E870EBA16000EBC6E1200D08EF198AC
:104E4800F092F09EF088C0EC26F0F28EF28C120000
:104E5800C5829EA632EF27F034EF27F02DEF27F01A
:104E68009E961200C5849EA63CEF27F03EEF27F0E1
:104E780037EF27F09E961200C5809EA646EF27F0D2
:104E880048EF27F041EF27F09E961200010E01012E
:104E98002E27000E2F23302331231200286E756C25
:104EA8006C29000303080308D386D288FC0ED316A6
:104EB800D38E1200CF68DE0ECE6E78EC27F012008B
:104EC800056E05508EEC26F01200000E0001DE6F14
:104ED8001200010E0001DE6F12000001DE51120007
:0D4EE800BA941200BA8412009E90120008C5
:107C6000000E0A0E00000000000D0A0D0A416C61B2
:107C7000726D73233A20483A25303275204D3A25EB
:107C800030327520533A2530327520433A25303250
:107C9000752C2573203B2054483A253033692C2518
:107CA0007320544C3A253033692C257320544852A4
:107CB000533A253033750D0A000D0A0D0A54696DCB
:107CC00065233A20253032752F253032752F32301A
:107CD00025303275202530327520253032753A2511
:107CE0003032753A253032750D0A004572726F7266
:107CF000202D3E204E6F6D627265206465206C61A0
:107D0000205461726561206D7579206772616E64BF
:107D1000650D0A000D0A4572726F7220656E20654E
:107D20006C2062757320312D576972652021212CDA
:107D300020726561736F6E20313232000D0A457218
:107D4000726F7220656E20656C2062757320312D14
:107D5000576972652021212C20726561736F6E2036
:107D6000313333000D0A4572726F7220656E2065E3
:107D70006C2042757320493243202C207265617358
:107D80006F6E203736332121000D0A4572726F72F3
:107D900020656E20656C2062757320493243202176
:107DA000212C20726561736F6E20373935000D0A02
:107DB0004572726F7220656E20656C20627573204B
:107DC0004932432021212C20726561736F6E203768
:107DD0003238000D0A4572726F7220656E20656C34
:107DE0002062757320312D576972652C2072656190
:107DF000736F6E20323738000D0A4572726F722031
:107E0000656E20656C204275732049324320212124
:107E10002C20726561736F6E20323938000D0A456F
:107E200072726F7220656E20656C206275732049D6
:107E300032432021212C20726561736F6E2031380E
:107E400034000D0A4572726F7220656E20656C20D9
:107E5000627573204932432C20726561736F6E3AEC
:107E600020313439000D0A54656D70202873747206
:107E7000293A202573B043202C2028696E742923C9
:107E80003A202569B04300446174653A20253032B8
:107E9000752F253032752F32302530327500546100
:107EA0007265612063726561646120233A202564F4
:107EB0000D0A0D0A00483A25303275204D3A25301A
:107EC000327520533A2530327500253032753A2507
:107ED0003032753A25303275202573002054454DD7
:107EE0005020414C41524D205B20435D0054454D94
:107EF00050204F6666736574205B20435D002054FC
:107F0000483A2530336920544C3A253033690044CF
:107F100053313842323020524F4D20436F64650058
:107F2000436C6F636B2026262043616C656E647220
:107F300000437265616E646F2054617265610D0A61
:107F400000202057454C434F4D4520544F202020C2
:107F5000002020557064617465204F4B2121002062
:107F60002020414C4C20414C41524D53002054495B
:107F70004D4520436164656E636500202054494D82
:107F80004520414C41524D00544852533A2530331C
:107F900075004D696E3A25303275005461736B205F
:107FA00031005461736B2032005461736B203300D5
:107FB0005461736B2034005461736B20350054613D
:107FC000736B2036005461736B2037005461736B00
:107FD00020380025752E257500256C6C780A006CFC
:107FE0006C58006C6C64006C6C69006C6C75006C97
:0F7FF0006C78002D2573004F4646004F4E000061
:020000040020DA
:08000000FFFFFFFFFFFFFFFF00
:020000040030CA
:0E00000023225E3CFFC385FF0FC00FE00F40C0
:00000001FF
